{
  "address": "0xBC93b4531dc0E18097A18af3eFEfA0377E60d2D3",
  "abi": [
    {
      "inputs": [],
      "stateMutability": "nonpayable",
      "type": "constructor"
    },
    {
      "inputs": [
        {
          "internalType": "address",
          "name": "account",
          "type": "address"
        }
      ],
      "name": "AddressInsufficientBalance",
      "type": "error"
    },
    {
      "inputs": [],
      "name": "AlreadyClaimed",
      "type": "error"
    },
    {
      "inputs": [],
      "name": "ClaimDateIsPending",
      "type": "error"
    },
    {
      "inputs": [],
      "name": "FailedInnerCall",
      "type": "error"
    },
    {
      "inputs": [],
      "name": "FairLaunchHasEnded",
      "type": "error"
    },
    {
      "inputs": [],
      "name": "FairLaunchIsStillLive",
      "type": "error"
    },
    {
      "inputs": [],
      "name": "InvalidInitialization",
      "type": "error"
    },
    {
      "inputs": [],
      "name": "LiquidtyIsNotYetAdded",
      "type": "error"
    },
    {
      "inputs": [],
      "name": "MathOverflowedMulDiv",
      "type": "error"
    },
    {
      "inputs": [],
      "name": "NotInitializing",
      "type": "error"
    },
    {
      "inputs": [
        {
          "internalType": "address",
          "name": "owner",
          "type": "address"
        }
      ],
      "name": "OwnableInvalidOwner",
      "type": "error"
    },
    {
      "inputs": [
        {
          "internalType": "address",
          "name": "account",
          "type": "address"
        }
      ],
      "name": "OwnableUnauthorizedAccount",
      "type": "error"
    },
    {
      "inputs": [],
      "name": "YourAmountIsZero",
      "type": "error"
    },
    {
      "anonymous": false,
      "inputs": [
        {
          "indexed": true,
          "internalType": "address",
          "name": "user",
          "type": "address"
        },
        {
          "indexed": false,
          "internalType": "uint256",
          "name": "amount",
          "type": "uint256"
        }
      ],
      "name": "Claimed",
      "type": "event"
    },
    {
      "anonymous": false,
      "inputs": [
        {
          "indexed": true,
          "internalType": "address",
          "name": "user",
          "type": "address"
        },
        {
          "indexed": false,
          "internalType": "uint256",
          "name": "amount",
          "type": "uint256"
        }
      ],
      "name": "Contribution",
      "type": "event"
    },
    {
      "anonymous": false,
      "inputs": [
        {
          "indexed": false,
          "internalType": "uint64",
          "name": "version",
          "type": "uint64"
        }
      ],
      "name": "Initialized",
      "type": "event"
    },
    {
      "anonymous": false,
      "inputs": [
        {
          "indexed": true,
          "internalType": "address",
          "name": "previousOwner",
          "type": "address"
        },
        {
          "indexed": true,
          "internalType": "address",
          "name": "newOwner",
          "type": "address"
        }
      ],
      "name": "OwnershipTransferred",
      "type": "event"
    },
    {
      "inputs": [],
      "name": "addLiquidity",
      "outputs": [],
      "stateMutability": "nonpayable",
      "type": "function"
    },
    {
      "inputs": [],
      "name": "claim",
      "outputs": [],
      "stateMutability": "nonpayable",
      "type": "function"
    },
    {
      "inputs": [
        {
          "internalType": "address",
          "name": "",
          "type": "address"
        }
      ],
      "name": "claimDate",
      "outputs": [
        {
          "internalType": "uint256",
          "name": "",
          "type": "uint256"
        }
      ],
      "stateMutability": "view",
      "type": "function"
    },
    {
      "inputs": [
        {
          "internalType": "address",
          "name": "",
          "type": "address"
        }
      ],
      "name": "claims",
      "outputs": [
        {
          "internalType": "uint256",
          "name": "",
          "type": "uint256"
        }
      ],
      "stateMutability": "view",
      "type": "function"
    },
    {
      "inputs": [],
      "name": "collectAllFees",
      "outputs": [],
      "stateMutability": "nonpayable",
      "type": "function"
    },
    {
      "inputs": [],
      "name": "contribute",
      "outputs": [],
      "stateMutability": "payable",
      "type": "function"
    },
    {
      "inputs": [
        {
          "internalType": "address",
          "name": "",
          "type": "address"
        }
      ],
      "name": "contributions",
      "outputs": [
        {
          "internalType": "uint256",
          "name": "",
          "type": "uint256"
        }
      ],
      "stateMutability": "view",
      "type": "function"
    },
    {
      "inputs": [],
      "name": "count",
      "outputs": [
        {
          "internalType": "uint256",
          "name": "",
          "type": "uint256"
        }
      ],
      "stateMutability": "view",
      "type": "function"
    },
    {
      "inputs": [
        {
          "components": [
            {
              "internalType": "bool",
              "name": "lpAdded",
              "type": "bool"
            },
            {
              "internalType": "address",
              "name": "sleepfinance",
              "type": "address"
            },
            {
              "internalType": "address",
              "name": "team",
              "type": "address"
            },
            {
              "internalType": "contract IERC20Minimal",
              "name": "token",
              "type": "address"
            },
            {
              "internalType": "contract IWETH9",
              "name": "weth",
              "type": "address"
            },
            {
              "internalType": "contract INonfungiblePositionManager",
              "name": "uniswap",
              "type": "address"
            },
            {
              "internalType": "uint256",
              "name": "endTime",
              "type": "uint256"
            }
          ],
          "internalType": "struct IFairLaunch.Setting",
          "name": "config",
          "type": "tuple"
        }
      ],
      "name": "initialize",
      "outputs": [],
      "stateMutability": "nonpayable",
      "type": "function"
    },
    {
      "inputs": [
        {
          "internalType": "address",
          "name": "",
          "type": "address"
        },
        {
          "internalType": "address",
          "name": "",
          "type": "address"
        },
        {
          "internalType": "uint256",
          "name": "_tokenId",
          "type": "uint256"
        },
        {
          "internalType": "bytes",
          "name": "",
          "type": "bytes"
        }
      ],
      "name": "onERC721Received",
      "outputs": [
        {
          "internalType": "bytes4",
          "name": "",
          "type": "bytes4"
        }
      ],
      "stateMutability": "nonpayable",
      "type": "function"
    },
    {
      "inputs": [],
      "name": "owner",
      "outputs": [
        {
          "internalType": "address",
          "name": "",
          "type": "address"
        }
      ],
      "stateMutability": "view",
      "type": "function"
    },
    {
      "inputs": [],
      "name": "pool",
      "outputs": [
        {
          "internalType": "address",
          "name": "",
          "type": "address"
        }
      ],
      "stateMutability": "view",
      "type": "function"
    },
    {
      "inputs": [
        {
          "internalType": "contract IERC20Minimal",
          "name": "token",
          "type": "address"
        }
      ],
      "name": "removeTokens",
      "outputs": [],
      "stateMutability": "nonpayable",
      "type": "function"
    },
    {
      "inputs": [],
      "name": "renounceOwnership",
      "outputs": [],
      "stateMutability": "nonpayable",
      "type": "function"
    },
    {
      "inputs": [],
      "name": "settings",
      "outputs": [
        {
          "components": [
            {
              "internalType": "bool",
              "name": "lpAdded",
              "type": "bool"
            },
            {
              "internalType": "address",
              "name": "sleepfinance",
              "type": "address"
            },
            {
              "internalType": "address",
              "name": "team",
              "type": "address"
            },
            {
              "internalType": "contract IERC20Minimal",
              "name": "token",
              "type": "address"
            },
            {
              "internalType": "contract IWETH9",
              "name": "weth",
              "type": "address"
            },
            {
              "internalType": "contract INonfungiblePositionManager",
              "name": "uniswap",
              "type": "address"
            },
            {
              "internalType": "uint256",
              "name": "endTime",
              "type": "uint256"
            }
          ],
          "internalType": "struct IFairLaunch.Setting",
          "name": "",
          "type": "tuple"
        }
      ],
      "stateMutability": "view",
      "type": "function"
    },
    {
      "inputs": [],
      "name": "teamClaim",
      "outputs": [],
      "stateMutability": "nonpayable",
      "type": "function"
    },
    {
      "inputs": [],
      "name": "teamHasClaimedTokens",
      "outputs": [
        {
          "internalType": "bool",
          "name": "",
          "type": "bool"
        }
      ],
      "stateMutability": "view",
      "type": "function"
    },
    {
      "inputs": [],
      "name": "tokenId",
      "outputs": [
        {
          "internalType": "uint256",
          "name": "",
          "type": "uint256"
        }
      ],
      "stateMutability": "view",
      "type": "function"
    },
    {
      "inputs": [],
      "name": "tokenomics",
      "outputs": [
        {
          "components": [
            {
              "internalType": "uint256",
              "name": "membersReward",
              "type": "uint256"
            },
            {
              "internalType": "uint256",
              "name": "membersAllocation",
              "type": "uint256"
            },
            {
              "internalType": "uint256",
              "name": "liquidityAllocation",
              "type": "uint256"
            },
            {
              "internalType": "uint256",
              "name": "teamAllocation",
              "type": "uint256"
            },
            {
              "internalType": "uint256",
              "name": "totalContribution",
              "type": "uint256"
            }
          ],
          "internalType": "struct IFairLaunch.Tokenomics",
          "name": "",
          "type": "tuple"
        }
      ],
      "stateMutability": "view",
      "type": "function"
    },
    {
      "inputs": [
        {
          "internalType": "address",
          "name": "newOwner",
          "type": "address"
        }
      ],
      "name": "transferOwnership",
      "outputs": [],
      "stateMutability": "nonpayable",
      "type": "function"
    },
    {
      "stateMutability": "payable",
      "type": "receive"
    }
  ],
  "transactionHash": "0x15bd5366a5f358434fad7d51dd838983e451aa27970c3eff3c66c0375f04fa31",
  "args": [],
  "numDeployments": 1,
  "solcInputHash": "8de48f4a09923ad8dc755c9f03d360ca",
  "bytecode": "0x608060405234801561001057600080fd5b5061001961001e565b6100d0565b7ff0c57e16840df040f15088dc2f81fe391c3923bec73e23a9662efc9c229c6a00805468010000000000000000900460ff161561006e5760405163f92ee8a960e01b815260040160405180910390fd5b80546001600160401b03908116146100cd5780546001600160401b0319166001600160401b0390811782556040519081527fc7f505b2f371ae2175ee4913f4499e1f2633a7b5936321eed1cdaeb6115181d29060200160405180910390a15b50565b611e2b806100df6000396000f3fe6080604052600436106101235760003560e01c80636ae146c2116100a0578063d7bb99ba11610064578063d7bb99ba1461037f578063e06174e414610387578063e8078d941461049d578063f2fde38b146104b2578063fc50baf5146104d257600080fd5b80636ae146c2146102e9578063715018a6146102fe5780638949614b146103135780638da5cb5b1461033d578063c6788bdd1461035257600080fd5b806342e94c90116100e757806342e94c901461021957806342f667a1146102465780634ac7251d146102685780634e71d92d146102bf578063686f2c90146102d457600080fd5b806306661abd1461012f5780630a3e86b114610158578063150b7a021461018557806316f0115b146101cb57806317d70f7c1461020357600080fd5b3661012a57005b600080fd5b34801561013b57600080fd5b5061014560125481565b6040519081526020015b60405180910390f35b34801561016457600080fd5b50610145610173366004611938565b60056020526000908152604090205481565b34801561019157600080fd5b506101b26101a036600461196b565b5060015550630a85bd0160e11b919050565b6040516001600160e01b0319909116815260200161014f565b3480156101d757600080fd5b506002546101eb906001600160a01b031681565b6040516001600160a01b03909116815260200161014f565b34801561020f57600080fd5b5061014560015481565b34801561022557600080fd5b50610145610234366004611938565b60036020526000908152604090205481565b34801561025257600080fd5b50610266610261366004611a4b565b6104f2565b005b34801561027457600080fd5b5061027d61075a565b60405161014f9190600060a082019050825182526020830151602083015260408301516040830152606083015160608301526080830151608083015292915050565b3480156102cb57600080fd5b506102666107c1565b3480156102e057600080fd5b506102666108f3565b3480156102f557600080fd5b506102666109e6565b34801561030a57600080fd5b50610266610b37565b34801561031f57600080fd5b5060065461032d9060ff1681565b604051901515815260200161014f565b34801561034957600080fd5b506101eb610b4b565b34801561035e57600080fd5b5061014561036d366004611938565b60046020526000908152604090205481565b610266610b79565b34801561039357600080fd5b506104316040805160e081018252600080825260208201819052918101829052606081018290526080810182905260a0810182905260c0810191909152506040805160e08101825260075460ff8116151582526001600160a01b036101009091048116602083015260085481169282019290925260095482166060820152600a5482166080820152600b5490911660a0820152600c5460c082015290565b60405161014f9190600060e082019050825115158252602083015160018060a01b0380821660208501528060408601511660408501528060608601511660608501528060808601511660808501528060a08601511660a0850152505060c083015160c083015292915050565b3480156104a957600080fd5b50610266610c6b565b3480156104be57600080fd5b506102666104cd366004611938565b610cee565b3480156104de57600080fd5b506102666104ed366004611938565b610d2e565b7ff0c57e16840df040f15088dc2f81fe391c3923bec73e23a9662efc9c229c6a008054600160401b810460ff16159067ffffffffffffffff166000811580156105385750825b905060008267ffffffffffffffff1660011480156105555750303b155b905081158015610563575080155b156105815760405163f92ee8a960e01b815260040160405180910390fd5b845467ffffffffffffffff1916600117855583156105ab57845460ff60401b1916600160401b1785555b6105c36105be6040880160208901611938565b610e7c565b8560076105d08282611a9e565b50506000805462ffffff191662f2761817908190556105f19060020b611b6d565b6000805468ffffffffffff0000001916630100000062ffffff939093169290920268ffffff000000000000191691909117663c0000000000001781556009546040516370a0823160e01b81523060048201526001600160a01b03909116906370a0823190602401602060405180830381865afa158015610675573d6000803e3d6000fd5b505050506040513d601f19601f820116820180604052508101906106999190611b8f565b90506106aa816101f4612710610e8d565b600d556106bc81611194612710610e8d565b600e556106ce81610fa0612710610e8d565b600f556106e0816103e8612710610e8d565b6010556106f0426220f580611ba8565b6008546001600160a01b031660009081526005602052604090205550831561075257845460ff60401b19168555604051600181527fc7f505b2f371ae2175ee4913f4499e1f2633a7b5936321eed1cdaeb6115181d29060200160405180910390a15b505050505050565b61078c6040518060a0016040528060008152602001600081526020016000815260200160008152602001600081525090565b506040805160a081018252600d548152600e546020820152600f54918101919091526010546060820152601154608082015290565b60075460ff166107e457604051630c2daf9b60e11b815260040160405180910390fd5b336000908152600560205260409020544210156108145760405163312d6e6b60e11b815260040160405180910390fd5b336000908152600460205260409020541561084257604051630c8d9eab60e31b815260040160405180910390fd5b33600090815260036020526040902054600e54601154610863929190610e8d565b33600081815260046020819052604091829020849055600954915163a9059cbb60e01b81529081019290925260248201929092526001600160a01b039091169063a9059cbb906044015b6020604051808303816000875af11580156108cc573d6000803e3d6000fd5b505050506040513d601f19601f820116820180604052508101906108f09190611bbb565b50565b60075460ff1661091657604051630c2daf9b60e11b815260040160405180910390fd5b600060405180608001604052806001548152602001610933610b4b565b6001600160a01b0390811682526001600160801b0360208084018290526040938401829052600b54845163fc6f786560e01b8152865160048201529186015184166024830152938501518216604482015260608501519091166064820152929350169063fc6f78659060840160408051808303816000875af11580156109bd573d6000803e3d6000fd5b505050506040513d601f19601f820116820180604052508101906109e19190611bd8565b505050565b60075460ff16610a0957604051630c2daf9b60e11b815260040160405180910390fd5b6008546001600160a01b0316600090815260056020526040902054421015610a445760405163312d6e6b60e11b815260040160405180910390fd5b60065460ff1615610a6857604051630c8d9eab60e31b815260040160405180910390fd5b6006805460ff1916600117905560095460085460105460405163a9059cbb60e01b81526001600160a01b039283166004820152602481019190915291169063a9059cbb906044016020604051808303816000875af1158015610ace573d6000803e3d6000fd5b505050506040513d601f19601f82011682018060405250810190610af29190611bbb565b50600954600754600d5460405163a9059cbb60e01b81526001600160a01b0361010090930483166004820152602481019190915291169063a9059cbb906044016108ad565b610b3f610f52565b610b496000610f84565b565b7f9016d09d72d40fdae2fd8ceac6b6234c7706214fd39c1cd1e609a0528c199300546001600160a01b031690565b600c54421115610b9c57604051634963a92360e11b815260040160405180910390fd5b336000908152600360205260408120549003610bc85760128054906000610bc283611bfc565b91905055505b3360009081526003602052604081208054349290610be7908490611ba8565b90915550610bfa905042620d2f00611ba8565b336000908152600560205260408120919091556012805491610c1b83611bfc565b9190505550610c273390565b6001600160a01b03167f4d154d4aae216bed6d0926db77c00df2b57c6b5ba4eee05775de20facede3a7b34604051610c6191815260200190565b60405180910390a2565b600c54421015610c8e576040516306dcd0a160e41b815260040160405180910390fd5b47610cb3610ca1826103e8612710610e8d565b6008546001600160a01b031690610ff5565b610cdc610cc5826101f4612710610e8d565b60075461010090046001600160a01b031690610ff5565b47601155610ce861108c565b50505050565b610cf6610f52565b6001600160a01b038116610d2557604051631e4fbdf760e01b8152600060048201526024015b60405180910390fd5b6108f081610f84565b610d3b62278d0042611c15565b600c541115610d5d57604051630c2daf9b60e11b815260040160405180910390fd5b6040516370a0823160e01b81523060048201526000906001600160a01b038316906370a0823190602401602060405180830381865afa158015610da4573d6000803e3d6000fd5b505050506040513d601f19601f82011682018060405250810190610dc89190611b8f565b90508015610e5a57816001600160a01b031663a9059cbb610de7610b4b565b6040516001600160e01b031960e084901b1681526001600160a01b039091166004820152602481018490526044016020604051808303816000875af1158015610e34573d6000803e3d6000fd5b505050506040513d601f19601f82011682018060405250810190610e589190611bbb565b505b4780156109e1576109e181610e6d610b4b565b6001600160a01b031690610ff5565b610e846114d6565b6108f08161151f565b6000838302816000198587098281108382030391505080600003610ec457838281610eba57610eba611c28565b0492505050610f4b565b808411610ee45760405163227bc15360e01b815260040160405180910390fd5b6000848688096000868103871696879004966002600389028118808a02820302808a02820302808a02820302808a02820302808a02820302808a02909103029181900381900460010186841190950394909402919094039290920491909117919091029150505b9392505050565b33610f5b610b4b565b6001600160a01b031614610b495760405163118cdaa760e01b8152336004820152602401610d1c565b7f9016d09d72d40fdae2fd8ceac6b6234c7706214fd39c1cd1e609a0528c19930080546001600160a01b031981166001600160a01b03848116918217845560405192169182907f8be0079c531659141344cd1fd0a4f28419497f9722a3daafe3b4186f6b6457e090600090a3505050565b804710156110185760405163cd78605960e01b8152306004820152602401610d1c565b6000826001600160a01b03168260405160006040518083038185875af1925050503d8060008114611065576040519150601f19603f3d011682016040523d82523d6000602084013e61106a565b606091505b50509050806109e157604051630a12f52160e11b815260040160405180910390fd5b600f54600a5460408051630d0e30db60e41b8152905160009384938493919247926001600160a01b039092169163d0e30db0918491600480820192899290919082900301818588803b1580156110e157600080fd5b505af11580156110f5573d6000803e3d6000fd5b5050600a546040516370a0823160e01b8152306004820152600094506001600160a01b0390911692506370a082319150602401602060405180830381865afa158015611145573d6000803e3d6000fd5b505050506040513d601f19601f820116820180604052508101906111699190611b8f565b90506111758382611527565b600954600b5460405163095ea7b360e01b81526001600160a01b0391821660048201526024810186905291169063095ea7b3906044016020604051808303816000875af11580156111ca573d6000803e3d6000fd5b505050506040513d601f19601f820116820180604052508101906111ee9190611bbb565b50600a54600b5460405163095ea7b360e01b81526001600160a01b0391821660048201526024810184905291169063095ea7b3906044016020604051808303816000875af1158015611244573d6000803e3d6000fd5b505050506040513d601f19601f820116820180604052508101906112689190611bbb565b5060408051610160810182526009546001600160a01b039081168252600a54166020820152610bb89181019190915260008054909190606082019066010000000000008104600290810b916112c0918391900b611c3e565b6112ca9190611c78565b600290810b825260005460209092019166010000000000008104820b916112fc9183916301000000909104900b611c3e565b6113069190611c78565b60020b815260208101869052604080820185905260006060830181905260808301523060a08301524260c090920191909152600b549051634418b22b60e11b81529192506001600160a01b031690638831645690611368908490600401611c9f565b6080604051808303816000875af1158015611387573d6000803e3d6000fd5b505050506040513d601f19601f820116820180604052508101906113ab9190611d63565b600193909355909850965094508386101561143b57600954600b5460405163095ea7b360e01b81526001600160a01b0391821660048201526000602482015291169063095ea7b3906044016020604051808303816000875af1158015611415573d6000803e3d6000fd5b505050506040513d601f19601f820116820180604052508101906114399190611bbb565b505b818510156114be57600a54600b5460405163095ea7b360e01b81526001600160a01b0391821660048201526000602482015291169063095ea7b3906044016020604051808303816000875af1158015611498573d6000803e3d6000fd5b505050506040513d601f19601f820116820180604052508101906114bc9190611bbb565b505b50506007805460ff1916600117905550929391925090565b7ff0c57e16840df040f15088dc2f81fe391c3923bec73e23a9662efc9c229c6a0054600160401b900460ff16610b4957604051631afcd79f60e31b815260040160405180910390fd5b610cf66114d6565b600a546009546000918291829161154c916001600160a01b0391821691168787611605565b600b546040516309f56ab160e11b81526001600160a01b0380861660048301528085166024830152610bb86044830152808416606483015294975092955090935091909116906313ead562906084016020604051808303816000875af11580156115ba573d6000803e3d6000fd5b505050506040513d601f19601f820116820180604052508101906115de9190611dad565b600280546001600160a01b0319166001600160a01b03929092169190911790555050505050565b60008060006116148787611654565b90935091506001600160a01b038084169088161461163d5761163684866116f1565b905061164a565b61164785856116f1565b90505b9450945094915050565b6000806001600160a01b0384161580159061167757506001600160a01b03831615155b6116c35760405162461bcd60e51b815260206004820152601f60248201527f546f6b656e206164647265737365732063616e6e6f74206265207a65726f2e006044820152606401610d1c565b826001600160a01b0316846001600160a01b0316106116e35782846116e6565b83835b909590945092505050565b600080831180156117025750600082115b61174e5760405162461bcd60e51b815260206004820152601960248201527f5265736572766573206d75737420626520706f736974697665000000000000006044820152606401610d1c565b6000600160601b61177e6064866117658288611dca565b61176f9190611de1565b6117799190611de1565b611790565b6117889190611dca565b949350505050565b6000816000036117a257506000919050565b600060016117af84611878565b901c6001901b905060018184816117c8576117c8611c28565b048201901c905060018184816117e0576117e0611c28565b048201901c905060018184816117f8576117f8611c28565b048201901c9050600181848161181057611810611c28565b048201901c9050600181848161182857611828611c28565b048201901c9050600181848161184057611840611c28565b048201901c9050600181848161185857611858611c28565b048201901c9050610f4b8182858161187257611872611c28565b0461190d565b600080608083901c1561188d57608092831c92015b604083901c1561189f57604092831c92015b602083901c156118b157602092831c92015b601083901c156118c357601092831c92015b600883901c156118d557600892831c92015b600483901c156118e757600492831c92015b600283901c156118f957600292831c92015b600183901c15611907576001015b92915050565b600081831061191c5781610f4b565b5090919050565b6001600160a01b03811681146108f057600080fd5b60006020828403121561194a57600080fd5b8135610f4b81611923565b634e487b7160e01b600052604160045260246000fd5b6000806000806080858703121561198157600080fd5b843561198c81611923565b9350602085013561199c81611923565b925060408501359150606085013567ffffffffffffffff808211156119c057600080fd5b818701915087601f8301126119d457600080fd5b8135818111156119e6576119e6611955565b604051601f8201601f19908116603f01168101908382118183101715611a0e57611a0e611955565b816040528281528a6020848701011115611a2757600080fd5b82602086016020830137600060208483010152809550505050505092959194509250565b600060e08284031215611a5d57600080fd5b50919050565b80151581146108f057600080fd5b6000813561190781611923565b80546001600160a01b0319166001600160a01b0392909216919091179055565b8135611aa981611a63565b815490151560ff1660ff19919091161781556020820135611ac981611923565b8154610100600160a81b031916600882901b610100600160a81b031617825550611b01611af860408401611a71565b60018301611a7e565b611b19611b1060608401611a71565b60028301611a7e565b611b31611b2860808401611a71565b60038301611a7e565b611b49611b4060a08401611a71565b60048301611a7e565b60c082013560058201555050565b634e487b7160e01b600052601160045260246000fd5b60008160020b627fffff198103611b8657611b86611b57565b60000392915050565b600060208284031215611ba157600080fd5b5051919050565b8082018082111561190757611907611b57565b600060208284031215611bcd57600080fd5b8151610f4b81611a63565b60008060408385031215611beb57600080fd5b505080516020909101519092909150565b600060018201611c0e57611c0e611b57565b5060010190565b8181038181111561190757611907611b57565b634e487b7160e01b600052601260045260246000fd5b60008160020b8360020b80611c5557611c55611c28565b627fffff19821460001982141615611c6f57611c6f611b57565b90059392505050565b60008260020b8260020b028060020b9150808214611c9857611c98611b57565b5092915050565b81516001600160a01b0316815261016081016020830151611ccb60208401826001600160a01b03169052565b506040830151611ce2604084018262ffffff169052565b506060830151611cf7606084018260020b9052565b506080830151611d0c608084018260020b9052565b5060a083015160a083015260c083015160c083015260e083015160e083015261010080840151818401525061012080840151611d52828501826001600160a01b03169052565b505061014092830151919092015290565b60008060008060808587031215611d7957600080fd5b8451935060208501516001600160801b0381168114611d9757600080fd5b6040860151606090960151949790965092505050565b600060208284031215611dbf57600080fd5b8151610f4b81611923565b808202811582820484141761190757611907611b57565b600082611df057611df0611c28565b50049056fea264697066735822122047dc8bf659bf0c697cb6cce35b4b70324b45a4f9dd17b2a6ab9cd6fa3972fbc664736f6c63430008140033",
  "devdoc": {
    "errors": {
      "AddressInsufficientBalance(address)": [
        {
          "details": "The ETH balance of the account is not enough to perform the operation."
        }
      ],
      "FailedInnerCall()": [
        {
          "details": "A call to an address target failed. The target may have reverted."
        }
      ],
      "InvalidInitialization()": [
        {
          "details": "The contract is already initialized."
        }
      ],
      "MathOverflowedMulDiv()": [
        {
          "details": "Muldiv operation overflow."
        }
      ],
      "NotInitializing()": [
        {
          "details": "The contract is not initializing."
        }
      ],
      "OwnableInvalidOwner(address)": [
        {
          "details": "The owner is not a valid owner account. (eg. `address(0)`)"
        }
      ],
      "OwnableUnauthorizedAccount(address)": [
        {
          "details": "The caller account is not authorized to perform an operation."
        }
      ]
    },
    "events": {
      "Initialized(uint64)": {
        "details": "Triggered when the contract has been initialized or reinitialized."
      }
    },
    "kind": "dev",
    "methods": {
      "owner()": {
        "details": "Returns the address of the current owner."
      },
      "renounceOwnership()": {
        "details": "Leaves the contract without owner. It will not be possible to call `onlyOwner` functions. Can only be called by the current owner. NOTE: Renouncing ownership will leave the contract without an owner, thereby disabling any functionality that is only available to the owner."
      },
      "transferOwnership(address)": {
        "details": "Transfers ownership of the contract to a new account (`newOwner`). Can only be called by the current owner."
      }
    },
    "version": 1
  },
  "userdoc": {
    "kind": "user",
    "methods": {
      "addLiquidity()": {
        "notice": "Add Liquiduity after sale date ends"
      },
      "collectAllFees()": {
        "notice": "project dev can collect fees"
      },
      "removeTokens(address)": {
        "notice": "project dev remove any ERC20Tokens Sent here after Launch"
      }
    },
    "version": 1
  },
  "storageLayout": {
    "storage": [
      {
        "astId": 7647,
        "contract": "contracts/Fairlaunch.sol:Fairlaunch",
        "label": "MIN_TICK",
        "offset": 0,
        "slot": "0",
        "type": "t_int24"
      },
      {
        "astId": 7649,
        "contract": "contracts/Fairlaunch.sol:Fairlaunch",
        "label": "MAX_TICK",
        "offset": 3,
        "slot": "0",
        "type": "t_int24"
      },
      {
        "astId": 7651,
        "contract": "contracts/Fairlaunch.sol:Fairlaunch",
        "label": "TICK_SPACING",
        "offset": 6,
        "slot": "0",
        "type": "t_int24"
      },
      {
        "astId": 7653,
        "contract": "contracts/Fairlaunch.sol:Fairlaunch",
        "label": "tokenId",
        "offset": 0,
        "slot": "1",
        "type": "t_uint256"
      },
      {
        "astId": 7655,
        "contract": "contracts/Fairlaunch.sol:Fairlaunch",
        "label": "pool",
        "offset": 0,
        "slot": "2",
        "type": "t_address"
      },
      {
        "astId": 7659,
        "contract": "contracts/Fairlaunch.sol:Fairlaunch",
        "label": "contributions",
        "offset": 0,
        "slot": "3",
        "type": "t_mapping(t_address,t_uint256)"
      },
      {
        "astId": 7663,
        "contract": "contracts/Fairlaunch.sol:Fairlaunch",
        "label": "claims",
        "offset": 0,
        "slot": "4",
        "type": "t_mapping(t_address,t_uint256)"
      },
      {
        "astId": 7667,
        "contract": "contracts/Fairlaunch.sol:Fairlaunch",
        "label": "claimDate",
        "offset": 0,
        "slot": "5",
        "type": "t_mapping(t_address,t_uint256)"
      },
      {
        "astId": 7669,
        "contract": "contracts/Fairlaunch.sol:Fairlaunch",
        "label": "teamHasClaimedTokens",
        "offset": 0,
        "slot": "6",
        "type": "t_bool"
      },
      {
        "astId": 7672,
        "contract": "contracts/Fairlaunch.sol:Fairlaunch",
        "label": "_settings",
        "offset": 0,
        "slot": "7",
        "type": "t_struct(Setting)9653_storage"
      },
      {
        "astId": 7675,
        "contract": "contracts/Fairlaunch.sol:Fairlaunch",
        "label": "_tokenomics",
        "offset": 0,
        "slot": "13",
        "type": "t_struct(Tokenomics)9664_storage"
      },
      {
        "astId": 7677,
        "contract": "contracts/Fairlaunch.sol:Fairlaunch",
        "label": "count",
        "offset": 0,
        "slot": "18",
        "type": "t_uint256"
      }
    ],
    "types": {
      "t_address": {
        "encoding": "inplace",
        "label": "address",
        "numberOfBytes": "20"
      },
      "t_bool": {
        "encoding": "inplace",
        "label": "bool",
        "numberOfBytes": "1"
      },
      "t_contract(IERC20Minimal)9617": {
        "encoding": "inplace",
        "label": "contract IERC20Minimal",
        "numberOfBytes": "20"
      },
      "t_contract(INonfungiblePositionManager)9869": {
        "encoding": "inplace",
        "label": "contract INonfungiblePositionManager",
        "numberOfBytes": "20"
      },
      "t_contract(IWETH9)10193": {
        "encoding": "inplace",
        "label": "contract IWETH9",
        "numberOfBytes": "20"
      },
      "t_int24": {
        "encoding": "inplace",
        "label": "int24",
        "numberOfBytes": "3"
      },
      "t_mapping(t_address,t_uint256)": {
        "encoding": "mapping",
        "key": "t_address",
        "label": "mapping(address => uint256)",
        "numberOfBytes": "32",
        "value": "t_uint256"
      },
      "t_struct(Setting)9653_storage": {
        "encoding": "inplace",
        "label": "struct IFairLaunch.Setting",
        "members": [
          {
            "astId": 9637,
            "contract": "contracts/Fairlaunch.sol:Fairlaunch",
            "label": "lpAdded",
            "offset": 0,
            "slot": "0",
            "type": "t_bool"
          },
          {
            "astId": 9639,
            "contract": "contracts/Fairlaunch.sol:Fairlaunch",
            "label": "sleepfinance",
            "offset": 1,
            "slot": "0",
            "type": "t_address"
          },
          {
            "astId": 9641,
            "contract": "contracts/Fairlaunch.sol:Fairlaunch",
            "label": "team",
            "offset": 0,
            "slot": "1",
            "type": "t_address"
          },
          {
            "astId": 9644,
            "contract": "contracts/Fairlaunch.sol:Fairlaunch",
            "label": "token",
            "offset": 0,
            "slot": "2",
            "type": "t_contract(IERC20Minimal)9617"
          },
          {
            "astId": 9647,
            "contract": "contracts/Fairlaunch.sol:Fairlaunch",
            "label": "weth",
            "offset": 0,
            "slot": "3",
            "type": "t_contract(IWETH9)10193"
          },
          {
            "astId": 9650,
            "contract": "contracts/Fairlaunch.sol:Fairlaunch",
            "label": "uniswap",
            "offset": 0,
            "slot": "4",
            "type": "t_contract(INonfungiblePositionManager)9869"
          },
          {
            "astId": 9652,
            "contract": "contracts/Fairlaunch.sol:Fairlaunch",
            "label": "endTime",
            "offset": 0,
            "slot": "5",
            "type": "t_uint256"
          }
        ],
        "numberOfBytes": "192"
      },
      "t_struct(Tokenomics)9664_storage": {
        "encoding": "inplace",
        "label": "struct IFairLaunch.Tokenomics",
        "members": [
          {
            "astId": 9655,
            "contract": "contracts/Fairlaunch.sol:Fairlaunch",
            "label": "membersReward",
            "offset": 0,
            "slot": "0",
            "type": "t_uint256"
          },
          {
            "astId": 9657,
            "contract": "contracts/Fairlaunch.sol:Fairlaunch",
            "label": "membersAllocation",
            "offset": 0,
            "slot": "1",
            "type": "t_uint256"
          },
          {
            "astId": 9659,
            "contract": "contracts/Fairlaunch.sol:Fairlaunch",
            "label": "liquidityAllocation",
            "offset": 0,
            "slot": "2",
            "type": "t_uint256"
          },
          {
            "astId": 9661,
            "contract": "contracts/Fairlaunch.sol:Fairlaunch",
            "label": "teamAllocation",
            "offset": 0,
            "slot": "3",
            "type": "t_uint256"
          },
          {
            "astId": 9663,
            "contract": "contracts/Fairlaunch.sol:Fairlaunch",
            "label": "totalContribution",
            "offset": 0,
            "slot": "4",
            "type": "t_uint256"
          }
        ],
        "numberOfBytes": "160"
      },
      "t_uint256": {
        "encoding": "inplace",
        "label": "uint256",
        "numberOfBytes": "32"
      }
    }
  }
}