{
  "address": "0xAbD8D1e98ad85222e42b4c24b8f1a816C73BBcb8",
  "abi": [
    {
      "inputs": [
        {
          "internalType": "address",
          "name": "initialOwner",
          "type": "address"
        },
        {
          "internalType": "address",
          "name": "_signitory",
          "type": "address"
        },
        {
          "internalType": "contract IERC20",
          "name": "_usdt",
          "type": "address"
        }
      ],
      "stateMutability": "nonpayable",
      "type": "constructor"
    },
    {
      "inputs": [
        {
          "internalType": "address",
          "name": "target",
          "type": "address"
        }
      ],
      "name": "AddressEmptyCode",
      "type": "error"
    },
    {
      "inputs": [
        {
          "internalType": "address",
          "name": "account",
          "type": "address"
        }
      ],
      "name": "AddressInsufficientBalance",
      "type": "error"
    },
    {
      "inputs": [],
      "name": "ECDSAInvalidSignature",
      "type": "error"
    },
    {
      "inputs": [
        {
          "internalType": "uint256",
          "name": "length",
          "type": "uint256"
        }
      ],
      "name": "ECDSAInvalidSignatureLength",
      "type": "error"
    },
    {
      "inputs": [
        {
          "internalType": "bytes32",
          "name": "s",
          "type": "bytes32"
        }
      ],
      "name": "ECDSAInvalidSignatureS",
      "type": "error"
    },
    {
      "inputs": [],
      "name": "FailedInnerCall",
      "type": "error"
    },
    {
      "inputs": [],
      "name": "InvalidShortString",
      "type": "error"
    },
    {
      "inputs": [],
      "name": "InvalidSignature",
      "type": "error"
    },
    {
      "inputs": [
        {
          "internalType": "address",
          "name": "owner",
          "type": "address"
        }
      ],
      "name": "OwnableInvalidOwner",
      "type": "error"
    },
    {
      "inputs": [
        {
          "internalType": "address",
          "name": "account",
          "type": "address"
        }
      ],
      "name": "OwnableUnauthorizedAccount",
      "type": "error"
    },
    {
      "inputs": [],
      "name": "PrizeBalanceIsLow",
      "type": "error"
    },
    {
      "inputs": [
        {
          "internalType": "address",
          "name": "token",
          "type": "address"
        }
      ],
      "name": "SafeERC20FailedOperation",
      "type": "error"
    },
    {
      "inputs": [
        {
          "internalType": "string",
          "name": "str",
          "type": "string"
        }
      ],
      "name": "StringTooLong",
      "type": "error"
    },
    {
      "inputs": [],
      "name": "UsedSignature",
      "type": "error"
    },
    {
      "anonymous": false,
      "inputs": [],
      "name": "EIP712DomainChanged",
      "type": "event"
    },
    {
      "anonymous": false,
      "inputs": [
        {
          "indexed": true,
          "internalType": "address",
          "name": "previousOwner",
          "type": "address"
        },
        {
          "indexed": true,
          "internalType": "address",
          "name": "newOwner",
          "type": "address"
        }
      ],
      "name": "OwnershipTransferred",
      "type": "event"
    },
    {
      "anonymous": false,
      "inputs": [
        {
          "indexed": true,
          "internalType": "address",
          "name": "user",
          "type": "address"
        },
        {
          "indexed": true,
          "internalType": "bytes32",
          "name": "digest",
          "type": "bytes32"
        },
        {
          "indexed": false,
          "internalType": "address",
          "name": "to",
          "type": "address"
        },
        {
          "indexed": false,
          "internalType": "uint256",
          "name": "amount",
          "type": "uint256"
        },
        {
          "indexed": false,
          "internalType": "uint256",
          "name": "uuid",
          "type": "uint256"
        }
      ],
      "name": "Withdraw",
      "type": "event"
    },
    {
      "inputs": [
        {
          "internalType": "address",
          "name": "_signitory",
          "type": "address"
        }
      ],
      "name": "changeSigner",
      "outputs": [],
      "stateMutability": "nonpayable",
      "type": "function"
    },
    {
      "inputs": [],
      "name": "eip712Domain",
      "outputs": [
        {
          "internalType": "bytes1",
          "name": "fields",
          "type": "bytes1"
        },
        {
          "internalType": "string",
          "name": "name",
          "type": "string"
        },
        {
          "internalType": "string",
          "name": "version",
          "type": "string"
        },
        {
          "internalType": "uint256",
          "name": "chainId",
          "type": "uint256"
        },
        {
          "internalType": "address",
          "name": "verifyingContract",
          "type": "address"
        },
        {
          "internalType": "bytes32",
          "name": "salt",
          "type": "bytes32"
        },
        {
          "internalType": "uint256[]",
          "name": "extensions",
          "type": "uint256[]"
        }
      ],
      "stateMutability": "view",
      "type": "function"
    },
    {
      "inputs": [
        {
          "internalType": "bytes32",
          "name": "digest",
          "type": "bytes32"
        }
      ],
      "name": "isUsed",
      "outputs": [
        {
          "internalType": "bool",
          "name": "",
          "type": "bool"
        }
      ],
      "stateMutability": "view",
      "type": "function"
    },
    {
      "inputs": [],
      "name": "owner",
      "outputs": [
        {
          "internalType": "address",
          "name": "",
          "type": "address"
        }
      ],
      "stateMutability": "view",
      "type": "function"
    },
    {
      "inputs": [
        {
          "internalType": "address",
          "name": "token",
          "type": "address"
        }
      ],
      "name": "recover",
      "outputs": [],
      "stateMutability": "nonpayable",
      "type": "function"
    },
    {
      "inputs": [],
      "name": "renounceOwnership",
      "outputs": [],
      "stateMutability": "nonpayable",
      "type": "function"
    },
    {
      "inputs": [],
      "name": "signitory",
      "outputs": [
        {
          "internalType": "address",
          "name": "",
          "type": "address"
        }
      ],
      "stateMutability": "view",
      "type": "function"
    },
    {
      "inputs": [],
      "name": "totalClaimed",
      "outputs": [
        {
          "internalType": "uint256",
          "name": "",
          "type": "uint256"
        }
      ],
      "stateMutability": "view",
      "type": "function"
    },
    {
      "inputs": [
        {
          "internalType": "address",
          "name": "newOwner",
          "type": "address"
        }
      ],
      "name": "transferOwnership",
      "outputs": [],
      "stateMutability": "nonpayable",
      "type": "function"
    },
    {
      "inputs": [],
      "name": "usdt",
      "outputs": [
        {
          "internalType": "contract IERC20",
          "name": "",
          "type": "address"
        }
      ],
      "stateMutability": "view",
      "type": "function"
    },
    {
      "inputs": [
        {
          "components": [
            {
              "internalType": "address",
              "name": "to",
              "type": "address"
            },
            {
              "internalType": "uint256",
              "name": "amount",
              "type": "uint256"
            },
            {
              "internalType": "uint256",
              "name": "uuid",
              "type": "uint256"
            }
          ],
          "internalType": "struct LibPrize.PRIZE",
          "name": "req",
          "type": "tuple"
        },
        {
          "internalType": "bytes",
          "name": "signature",
          "type": "bytes"
        }
      ],
      "name": "withdrawPrize",
      "outputs": [],
      "stateMutability": "nonpayable",
      "type": "function"
    }
  ],
  "transactionHash": "0x5ce75bedeefc1d9bc817c4057a6dd7420bd905db607f9f747a96cbb5bced9df4",
  "args": [
    "0x91F708a8D27F2BCcCe8c00A5f812e59B1A5e48E6",
    "0xf92cfD66626bDEfE9392f818cC75830B73e88548",
    "0x55d398326f99059fF775485246999027B3197955"
  ],
  "numDeployments": 1,
  "solcInputHash": "4dec16ecad8f25df06cde2acd37ebd6a",
  "bytecode": "0x6101606040523480156200001257600080fd5b506040516200157938038062001579833981016040819052620000359162000279565b604080518082018252600a8152695072697a65436c61696d60b01b602080830191909152825180840190935260018352603160f81b9083015290846001600160a01b038116620000a057604051631e4fbdf760e01b8152600060048201526024015b60405180910390fd5b620000ab8162000194565b50620000b9826001620001e4565b61012052620000ca816002620001e4565b61014052815160208084019190912060e052815190820120610100524660a0526200015860e05161010051604080517f8b73c3c69bb8fe3d512ecc4cf759cc79239f7b179b0ffacaa9a75d522b39400f60208201529081019290925260608201524660808201523060a082015260009060c00160405160208183030381529060405280519060200120905090565b60805250503060c052600580546001600160a01b039384166001600160a01b0319918216179091556007805492909316911617905550620004b3565b600080546001600160a01b038381166001600160a01b0319831681178455604051919092169283917f8be0079c531659141344cd1fd0a4f28419497f9722a3daafe3b4186f6b6457e09190a35050565b60006020835110156200020457620001fc836200021d565b905062000217565b8162000211848262000372565b5060ff90505b92915050565b600080829050601f815111156200024b578260405163305a27a960e01b81526004016200009791906200043e565b805162000258826200048e565b179392505050565b6001600160a01b03811681146200027657600080fd5b50565b6000806000606084860312156200028f57600080fd5b83516200029c8162000260565b6020850151909350620002af8162000260565b6040850151909250620002c28162000260565b809150509250925092565b634e487b7160e01b600052604160045260246000fd5b600181811c90821680620002f857607f821691505b6020821081036200031957634e487b7160e01b600052602260045260246000fd5b50919050565b601f8211156200036d57600081815260208120601f850160051c81016020861015620003485750805b601f850160051c820191505b81811015620003695782815560010162000354565b5050505b505050565b81516001600160401b038111156200038e576200038e620002cd565b620003a6816200039f8454620002e3565b846200031f565b602080601f831160018114620003de5760008415620003c55750858301515b600019600386901b1c1916600185901b17855562000369565b600085815260208120601f198616915b828110156200040f57888601518255948401946001909101908401620003ee565b50858210156200042e5787850151600019600388901b60f8161c191681555b5050505050600190811b01905550565b600060208083528351808285015260005b818110156200046d578581018301518582016040015282016200044f565b506000604082860101526040601f19601f8301168501019250505092915050565b80516020808301519190811015620003195760001960209190910360031b1b16919050565b60805160a05160c05160e05161010051610120516101405161106b6200050e60003960006106bc0152600061068a0152600061093b015260006109130152600061086e01526000610898015260006108c2015261106b6000f3fe608060405234801561001057600080fd5b50600436106100a95760003560e01c80638da5cb5b116100715780638da5cb5b14610129578063a9843a591461013a578063aad2b7231461014d578063d54ad2a114610160578063f2fde38b14610177578063fe255a181461018a57600080fd5b80630cd865ec146100ae5780632f48ab7d146100c35780636a2ba3a7146100f3578063715018a61461010657806384b0196e1461010e575b600080fd5b6100c16100bc366004610d59565b6101ad565b005b6007546100d6906001600160a01b031681565b6040516001600160a01b0390911681526020015b60405180910390f35b6100c1610101366004610d74565b610246565b6100c16102fc565b610116610310565b6040516100ea9796959493929190610e4f565b6000546001600160a01b03166100d6565b6005546100d6906001600160a01b031681565b6100c161015b366004610d59565b610356565b61016960065481565b6040519081526020016100ea565b6100c1610185366004610d59565b610380565b61019d610198366004610ee5565b6103c0565b60405190151581526020016100ea565b6101b56103d8565b6102436101ca6000546001600160a01b031690565b6040516370a0823160e01b81523060048201526001600160a01b038416906370a0823190602401602060405180830381865afa15801561020e573d6000803e3d6000fd5b505050506040513d601f19601f820116820180604052508101906102329190610efe565b6001600160a01b0384169190610405565b50565b600061025384848461045c565b905080337f05dc885a1d4c4a7e96ad74976fd2c648f9e7d75d9b76de1601a0156e92590c186102856020880188610d59565b604080516001600160a01b0390921682526020808a013590830152808901359082015260600160405180910390a38360200135600660008282546102c99190610f17565b909155506102f690506102df6020860186610d59565b6007546001600160a01b0316906020870135610405565b50505050565b6103046103d8565b61030e6000610633565b565b600060608060008060006060610324610683565b61032c6106b5565b60408051600080825260208201909252600f60f81b9b939a50919850469750309650945092509050565b61035e6103d8565b600580546001600160a01b0319166001600160a01b0392909216919091179055565b6103886103d8565b6001600160a01b0381166103b757604051631e4fbdf760e01b8152600060048201526024015b60405180910390fd5b61024381610633565b60008181526004602052604081205415155b92915050565b6000546001600160a01b0316331461030e5760405163118cdaa760e01b81523360048201526024016103ae565b604080516001600160a01b038416602482015260448082018490528251808303909101815260649091019091526020810180516001600160e01b031663a9059cbb60e01b1790526104579084906106e2565b505050565b6007546040516370a0823160e01b81523060048201526000916020860135916001600160a01b03909116906370a0823190602401602060405180830381865afa1580156104ad573d6000803e3d6000fd5b505050506040513d601f19601f820116820180604052508101906104d19190610efe565b10156104f057604051630e9b92b360e41b815260040160405180910390fd5b61057961057461050536879003870187610f38565b805160208083015160409384015184517f23a70ffa9c402282f9116ba4883244309710bad0e012a5d267f9db1e28f36cad818501526001600160a01b039094168486015260608401919091526080808401919091528351808403909101815260a0909201909252805191012090565b610745565b600081815260046020526040902054909150156105a95760405163333a6a0960e21b815260040160405180910390fd5b60006105ed84848080601f01602080910402602001604051908101604052809392919081815260200183838082843760009201919091525086939250506107729050565b6005549091506001600160a01b0380831691161461061e57604051638baa579f60e01b815260040160405180910390fd5b61062960038361079c565b50505b9392505050565b600080546001600160a01b038381166001600160a01b0319831681178455604051919092169283917f8be0079c531659141344cd1fd0a4f28419497f9722a3daafe3b4186f6b6457e09190a35050565b60606106b07f000000000000000000000000000000000000000000000000000000000000000060016107a8565b905090565b60606106b07f000000000000000000000000000000000000000000000000000000000000000060026107a8565b60006106f76001600160a01b03841683610853565b9050805160001415801561071c57508080602001905181019061071a9190610fa7565b155b1561045757604051635274afe760e01b81526001600160a01b03841660048201526024016103ae565b60006103d2610752610861565b8360405161190160f01b8152600281019290925260228201526042902090565b600080600080610782868661098c565b92509250925061079282826109d9565b5090949350505050565b600061062c8383610a96565b606060ff83146107c2576107bb83610ae5565b90506103d2565b8180546107ce90610fc9565b80601f01602080910402602001604051908101604052809291908181526020018280546107fa90610fc9565b80156108475780601f1061081c57610100808354040283529160200191610847565b820191906000526020600020905b81548152906001019060200180831161082a57829003601f168201915b505050505090506103d2565b606061062c83836000610b24565b6000306001600160a01b037f0000000000000000000000000000000000000000000000000000000000000000161480156108ba57507f000000000000000000000000000000000000000000000000000000000000000046145b156108e457507f000000000000000000000000000000000000000000000000000000000000000090565b6106b0604080517f8b73c3c69bb8fe3d512ecc4cf759cc79239f7b179b0ffacaa9a75d522b39400f60208201527f0000000000000000000000000000000000000000000000000000000000000000918101919091527f000000000000000000000000000000000000000000000000000000000000000060608201524660808201523060a082015260009060c00160405160208183030381529060405280519060200120905090565b600080600083516041036109c65760208401516040850151606086015160001a6109b888828585610bc1565b9550955095505050506109d2565b50508151600091506002905b9250925092565b60008260038111156109ed576109ed611003565b036109f6575050565b6001826003811115610a0a57610a0a611003565b03610a285760405163f645eedf60e01b815260040160405180910390fd5b6002826003811115610a3c57610a3c611003565b03610a5d5760405163fce698f760e01b8152600481018290526024016103ae565b6003826003811115610a7157610a71611003565b03610a92576040516335e2f38360e21b8152600481018290526024016103ae565b5050565b6000818152600183016020526040812054610add575081546001818101845560008481526020808220909301849055845484825282860190935260409020919091556103d2565b5060006103d2565b60606000610af283610c90565b604080516020808252818301909252919250600091906020820181803683375050509182525060208101929092525090565b606081471015610b495760405163cd78605960e01b81523060048201526024016103ae565b600080856001600160a01b03168486604051610b659190611019565b60006040518083038185875af1925050503d8060008114610ba2576040519150601f19603f3d011682016040523d82523d6000602084013e610ba7565b606091505b5091509150610bb7868383610cb8565b9695505050505050565b600080807f7fffffffffffffffffffffffffffffff5d576e7357a4501ddfe92f46681b20a0841115610bfc5750600091506003905082610c86565b604080516000808252602082018084528a905260ff891692820192909252606081018790526080810186905260019060a0016020604051602081039080840390855afa158015610c50573d6000803e3d6000fd5b5050604051601f1901519150506001600160a01b038116610c7c57506000925060019150829050610c86565b9250600091508190505b9450945094915050565b600060ff8216601f8111156103d257604051632cd44ac360e21b815260040160405180910390fd5b606082610ccd57610cc882610d14565b61062c565b8151158015610ce457506001600160a01b0384163b155b15610d0d57604051639996b31560e01b81526001600160a01b03851660048201526024016103ae565b508061062c565b805115610d245780518082602001fd5b604051630a12f52160e11b815260040160405180910390fd5b80356001600160a01b0381168114610d5457600080fd5b919050565b600060208284031215610d6b57600080fd5b61062c82610d3d565b60008060008385036080811215610d8a57600080fd5b6060811215610d9857600080fd5b50839250606084013567ffffffffffffffff80821115610db757600080fd5b818601915086601f830112610dcb57600080fd5b813581811115610dda57600080fd5b876020828501011115610dec57600080fd5b6020830194508093505050509250925092565b60005b83811015610e1a578181015183820152602001610e02565b50506000910152565b60008151808452610e3b816020860160208601610dff565b601f01601f19169290920160200192915050565b60ff60f81b881681526000602060e081840152610e6f60e084018a610e23565b8381036040850152610e81818a610e23565b606085018990526001600160a01b038816608086015260a0850187905284810360c0860152855180825283870192509083019060005b81811015610ed357835183529284019291840191600101610eb7565b50909c9b505050505050505050505050565b600060208284031215610ef757600080fd5b5035919050565b600060208284031215610f1057600080fd5b5051919050565b808201808211156103d257634e487b7160e01b600052601160045260246000fd5b600060608284031215610f4a57600080fd5b6040516060810181811067ffffffffffffffff82111715610f7b57634e487b7160e01b600052604160045260246000fd5b604052610f8783610d3d565b815260208301356020820152604083013560408201528091505092915050565b600060208284031215610fb957600080fd5b8151801515811461062c57600080fd5b600181811c90821680610fdd57607f821691505b602082108103610ffd57634e487b7160e01b600052602260045260246000fd5b50919050565b634e487b7160e01b600052602160045260246000fd5b6000825161102b818460208701610dff565b919091019291505056fea264697066735822122072f974ce0e7c71aad15bfe0e7af3515a4ba53e547020e9d5363fc44b2951b91d64736f6c63430008140033",
  "devdoc": {
    "errors": {
      "AddressEmptyCode(address)": [
        {
          "details": "There's no code at `target` (it is not a contract)."
        }
      ],
      "AddressInsufficientBalance(address)": [
        {
          "details": "The ETH balance of the account is not enough to perform the operation."
        }
      ],
      "ECDSAInvalidSignature()": [
        {
          "details": "The signature derives the `address(0)`."
        }
      ],
      "ECDSAInvalidSignatureLength(uint256)": [
        {
          "details": "The signature has an invalid length."
        }
      ],
      "ECDSAInvalidSignatureS(bytes32)": [
        {
          "details": "The signature has an S value that is in the upper half order."
        }
      ],
      "FailedInnerCall()": [
        {
          "details": "A call to an address target failed. The target may have reverted."
        }
      ],
      "OwnableInvalidOwner(address)": [
        {
          "details": "The owner is not a valid owner account. (eg. `address(0)`)"
        }
      ],
      "OwnableUnauthorizedAccount(address)": [
        {
          "details": "The caller account is not authorized to perform an operation."
        }
      ],
      "SafeERC20FailedOperation(address)": [
        {
          "details": "An operation with an ERC20 token failed."
        }
      ]
    },
    "events": {
      "EIP712DomainChanged()": {
        "details": "MAY be emitted to signal that the domain could have changed."
      }
    },
    "kind": "dev",
    "methods": {
      "eip712Domain()": {
        "details": "See {IERC-5267}."
      },
      "owner()": {
        "details": "Returns the address of the current owner."
      },
      "recover(address)": {
        "params": {
          "token": "tokens to recover"
        }
      },
      "renounceOwnership()": {
        "details": "Leaves the contract without owner. It will not be possible to call `onlyOwner` functions. Can only be called by the current owner. NOTE: Renouncing ownership will leave the contract without an owner, thereby disabling any functionality that is only available to the owner."
      },
      "transferOwnership(address)": {
        "details": "Transfers ownership of the contract to a new account (`newOwner`). Can only be called by the current owner."
      },
      "withdrawPrize((address,uint256,uint256),bytes)": {
        "params": {
          "req": "Multisend Struct",
          "signature": "Senders Signature;"
        }
      }
    },
    "version": 1
  },
  "userdoc": {
    "kind": "user",
    "methods": {
      "recover(address)": {
        "notice": "owner can recover any tokens sent here by mistake. Contract cannot accept BNB so no need"
      },
      "withdrawPrize((address,uint256,uint256),bytes)": {
        "notice": "allows user to withdraw his prize using signed hash;"
      }
    },
    "version": 1
  },
  "storageLayout": {
    "storage": [
      {
        "astId": 308,
        "contract": "contracts/PrizeClaim.sol:PrizeClaim",
        "label": "_owner",
        "offset": 0,
        "slot": "0",
        "type": "t_address"
      },
      {
        "astId": 3014,
        "contract": "contracts/PrizeClaim.sol:PrizeClaim",
        "label": "_nameFallback",
        "offset": 0,
        "slot": "1",
        "type": "t_string_storage"
      },
      {
        "astId": 3016,
        "contract": "contracts/PrizeClaim.sol:PrizeClaim",
        "label": "_versionFallback",
        "offset": 0,
        "slot": "2",
        "type": "t_string_storage"
      },
      {
        "astId": 6424,
        "contract": "contracts/PrizeClaim.sol:PrizeClaim",
        "label": "used",
        "offset": 0,
        "slot": "3",
        "type": "t_struct(Bytes32Set)5769_storage"
      },
      {
        "astId": 6426,
        "contract": "contracts/PrizeClaim.sol:PrizeClaim",
        "label": "signitory",
        "offset": 0,
        "slot": "5",
        "type": "t_address"
      },
      {
        "astId": 6428,
        "contract": "contracts/PrizeClaim.sol:PrizeClaim",
        "label": "totalClaimed",
        "offset": 0,
        "slot": "6",
        "type": "t_uint256"
      },
      {
        "astId": 6431,
        "contract": "contracts/PrizeClaim.sol:PrizeClaim",
        "label": "usdt",
        "offset": 0,
        "slot": "7",
        "type": "t_contract(IERC20)1295"
      }
    ],
    "types": {
      "t_address": {
        "encoding": "inplace",
        "label": "address",
        "numberOfBytes": "20"
      },
      "t_array(t_bytes32)dyn_storage": {
        "base": "t_bytes32",
        "encoding": "dynamic_array",
        "label": "bytes32[]",
        "numberOfBytes": "32"
      },
      "t_bytes32": {
        "encoding": "inplace",
        "label": "bytes32",
        "numberOfBytes": "32"
      },
      "t_contract(IERC20)1295": {
        "encoding": "inplace",
        "label": "contract IERC20",
        "numberOfBytes": "20"
      },
      "t_mapping(t_bytes32,t_uint256)": {
        "encoding": "mapping",
        "key": "t_bytes32",
        "label": "mapping(bytes32 => uint256)",
        "numberOfBytes": "32",
        "value": "t_uint256"
      },
      "t_string_storage": {
        "encoding": "bytes",
        "label": "string",
        "numberOfBytes": "32"
      },
      "t_struct(Bytes32Set)5769_storage": {
        "encoding": "inplace",
        "label": "struct EnumerableSet.Bytes32Set",
        "members": [
          {
            "astId": 5768,
            "contract": "contracts/PrizeClaim.sol:PrizeClaim",
            "label": "_inner",
            "offset": 0,
            "slot": "0",
            "type": "t_struct(Set)5575_storage"
          }
        ],
        "numberOfBytes": "64"
      },
      "t_struct(Set)5575_storage": {
        "encoding": "inplace",
        "label": "struct EnumerableSet.Set",
        "members": [
          {
            "astId": 5570,
            "contract": "contracts/PrizeClaim.sol:PrizeClaim",
            "label": "_values",
            "offset": 0,
            "slot": "0",
            "type": "t_array(t_bytes32)dyn_storage"
          },
          {
            "astId": 5574,
            "contract": "contracts/PrizeClaim.sol:PrizeClaim",
            "label": "_positions",
            "offset": 0,
            "slot": "1",
            "type": "t_mapping(t_bytes32,t_uint256)"
          }
        ],
        "numberOfBytes": "64"
      },
      "t_uint256": {
        "encoding": "inplace",
        "label": "uint256",
        "numberOfBytes": "32"
      }
    }
  }
}