{
    "address": "0x3a41eF7D9B4A51BF528A7b694CA794Cbd5575c7b",
    "abi": [
        {
            "inputs": [],
            "stateMutability": "nonpayable",
            "type": "constructor"
        },
        {
            "inputs": [
                {
                    "internalType": "address",
                    "name": "spender",
                    "type": "address"
                },
                {
                    "internalType": "uint256",
                    "name": "allowance",
                    "type": "uint256"
                },
                {
                    "internalType": "uint256",
                    "name": "needed",
                    "type": "uint256"
                }
            ],
            "name": "ERC20InsufficientAllowance",
            "type": "error"
        },
        {
            "inputs": [
                {
                    "internalType": "address",
                    "name": "sender",
                    "type": "address"
                },
                {
                    "internalType": "uint256",
                    "name": "balance",
                    "type": "uint256"
                },
                {
                    "internalType": "uint256",
                    "name": "needed",
                    "type": "uint256"
                }
            ],
            "name": "ERC20InsufficientBalance",
            "type": "error"
        },
        {
            "inputs": [
                {
                    "internalType": "address",
                    "name": "approver",
                    "type": "address"
                }
            ],
            "name": "ERC20InvalidApprover",
            "type": "error"
        },
        {
            "inputs": [
                {
                    "internalType": "address",
                    "name": "receiver",
                    "type": "address"
                }
            ],
            "name": "ERC20InvalidReceiver",
            "type": "error"
        },
        {
            "inputs": [
                {
                    "internalType": "address",
                    "name": "sender",
                    "type": "address"
                }
            ],
            "name": "ERC20InvalidSender",
            "type": "error"
        },
        {
            "inputs": [
                {
                    "internalType": "address",
                    "name": "spender",
                    "type": "address"
                }
            ],
            "name": "ERC20InvalidSpender",
            "type": "error"
        },
        {
            "inputs": [],
            "name": "InvalidInitialization",
            "type": "error"
        },
        {
            "inputs": [],
            "name": "NotInitializing",
            "type": "error"
        },
        {
            "anonymous": false,
            "inputs": [
                {
                    "indexed": true,
                    "internalType": "address",
                    "name": "owner",
                    "type": "address"
                },
                {
                    "indexed": true,
                    "internalType": "address",
                    "name": "spender",
                    "type": "address"
                },
                {
                    "indexed": false,
                    "internalType": "uint256",
                    "name": "value",
                    "type": "uint256"
                }
            ],
            "name": "Approval",
            "type": "event"
        },
        {
            "anonymous": false,
            "inputs": [
                {
                    "indexed": false,
                    "internalType": "uint64",
                    "name": "version",
                    "type": "uint64"
                }
            ],
            "name": "Initialized",
            "type": "event"
        },
        {
            "anonymous": false,
            "inputs": [
                {
                    "indexed": true,
                    "internalType": "address",
                    "name": "from",
                    "type": "address"
                },
                {
                    "indexed": true,
                    "internalType": "address",
                    "name": "to",
                    "type": "address"
                },
                {
                    "indexed": false,
                    "internalType": "uint256",
                    "name": "value",
                    "type": "uint256"
                }
            ],
            "name": "Transfer",
            "type": "event"
        },
        {
            "inputs": [
                {
                    "internalType": "address",
                    "name": "owner",
                    "type": "address"
                },
                {
                    "internalType": "address",
                    "name": "spender",
                    "type": "address"
                }
            ],
            "name": "allowance",
            "outputs": [
                {
                    "internalType": "uint256",
                    "name": "",
                    "type": "uint256"
                }
            ],
            "stateMutability": "view",
            "type": "function"
        },
        {
            "inputs": [
                {
                    "internalType": "address",
                    "name": "spender",
                    "type": "address"
                },
                {
                    "internalType": "uint256",
                    "name": "value",
                    "type": "uint256"
                }
            ],
            "name": "approve",
            "outputs": [
                {
                    "internalType": "bool",
                    "name": "",
                    "type": "bool"
                }
            ],
            "stateMutability": "nonpayable",
            "type": "function"
        },
        {
            "inputs": [
                {
                    "internalType": "address",
                    "name": "account",
                    "type": "address"
                }
            ],
            "name": "balanceOf",
            "outputs": [
                {
                    "internalType": "uint256",
                    "name": "",
                    "type": "uint256"
                }
            ],
            "stateMutability": "view",
            "type": "function"
        },
        {
            "inputs": [],
            "name": "decimals",
            "outputs": [
                {
                    "internalType": "uint8",
                    "name": "",
                    "type": "uint8"
                }
            ],
            "stateMutability": "view",
            "type": "function"
        },
        {
            "inputs": [
                {
                    "internalType": "string",
                    "name": "name",
                    "type": "string"
                },
                {
                    "internalType": "string",
                    "name": "symbol",
                    "type": "string"
                },
                {
                    "internalType": "uint256",
                    "name": "supply",
                    "type": "uint256"
                }
            ],
            "name": "initialize",
            "outputs": [],
            "stateMutability": "nonpayable",
            "type": "function"
        },
        {
            "inputs": [],
            "name": "name",
            "outputs": [
                {
                    "internalType": "string",
                    "name": "",
                    "type": "string"
                }
            ],
            "stateMutability": "view",
            "type": "function"
        },
        {
            "inputs": [],
            "name": "symbol",
            "outputs": [
                {
                    "internalType": "string",
                    "name": "",
                    "type": "string"
                }
            ],
            "stateMutability": "view",
            "type": "function"
        },
        {
            "inputs": [],
            "name": "totalSupply",
            "outputs": [
                {
                    "internalType": "uint256",
                    "name": "",
                    "type": "uint256"
                }
            ],
            "stateMutability": "view",
            "type": "function"
        },
        {
            "inputs": [
                {
                    "internalType": "address",
                    "name": "to",
                    "type": "address"
                },
                {
                    "internalType": "uint256",
                    "name": "value",
                    "type": "uint256"
                }
            ],
            "name": "transfer",
            "outputs": [
                {
                    "internalType": "bool",
                    "name": "",
                    "type": "bool"
                }
            ],
            "stateMutability": "nonpayable",
            "type": "function"
        },
        {
            "inputs": [
                {
                    "internalType": "address",
                    "name": "from",
                    "type": "address"
                },
                {
                    "internalType": "address",
                    "name": "to",
                    "type": "address"
                },
                {
                    "internalType": "uint256",
                    "name": "value",
                    "type": "uint256"
                }
            ],
            "name": "transferFrom",
            "outputs": [
                {
                    "internalType": "bool",
                    "name": "",
                    "type": "bool"
                }
            ],
            "stateMutability": "nonpayable",
            "type": "function"
        }
    ],
    "transactionHash": "0x77a57097282634972a0bb3151e4cc277ad0f94548fedb8b3d7e8d8cfc3a1a52c",
    "args": [],
    "numDeployments": 1,
    "solcInputHash": "fd5f63e689b51ccdfcb2157140929547",
    "bytecode": "0x608060405234801561001057600080fd5b5061001961001e565b6100d0565b7ff0c57e16840df040f15088dc2f81fe391c3923bec73e23a9662efc9c229c6a00805468010000000000000000900460ff161561006e5760405163f92ee8a960e01b815260040160405180910390fd5b80546001600160401b03908116146100cd5780546001600160401b0319166001600160401b0390811782556040519081527fc7f505b2f371ae2175ee4913f4499e1f2633a7b5936321eed1cdaeb6115181d29060200160405180910390a15b50565b610c74806100df6000396000f3fe608060405234801561001057600080fd5b506004361061009e5760003560e01c806370a082311161006657806370a082311461013757806395d89b411461016d578063a9059cbb14610175578063b119490e14610188578063dd62ed3e1461019d57600080fd5b806306fdde03146100a3578063095ea7b3146100c157806318160ddd146100e457806323b872dd14610115578063313ce56714610128575b600080fd5b6100ab6101b0565b6040516100b891906108ba565b60405180910390f35b6100d46100cf366004610925565b610273565b60405190151581526020016100b8565b7f52c63247e1f47db19d5ce0460030c497f067ca4cebf71ba98eeadabe20bace02545b6040519081526020016100b8565b6100d461012336600461094f565b61028d565b604051601281526020016100b8565b61010761014536600461098b565b6001600160a01b03166000908152600080516020610c1f833981519152602052604090205490565b6100ab6102b1565b6100d4610183366004610925565b6102f0565b61019b6101963660046109f6565b6102fe565b005b6101076101ab366004610a6a565b610486565b7f52c63247e1f47db19d5ce0460030c497f067ca4cebf71ba98eeadabe20bace038054606091600080516020610c1f833981519152916101ef90610a9d565b80601f016020809104026020016040519081016040528092919081815260200182805461021b90610a9d565b80156102685780601f1061023d57610100808354040283529160200191610268565b820191906000526020600020905b81548152906001019060200180831161024b57829003601f168201915b505050505091505090565b6000336102818185856104d0565b60019150505b92915050565b60003361029b8582856104e2565b6102a685858561054d565b506001949350505050565b7f52c63247e1f47db19d5ce0460030c497f067ca4cebf71ba98eeadabe20bace048054606091600080516020610c1f833981519152916101ef90610a9d565b60003361028181858561054d565b7ff0c57e16840df040f15088dc2f81fe391c3923bec73e23a9662efc9c229c6a008054600160401b810460ff16159067ffffffffffffffff166000811580156103445750825b905060008267ffffffffffffffff1660011480156103615750303b155b90508115801561036f575080155b1561038d5760405163f92ee8a960e01b815260040160405180910390fd5b845467ffffffffffffffff1916600117855583156103b757845460ff60401b1916600160401b1785555b61042a8a8a8080601f01602080910402602001604051908101604052809392919081815260200183838082843760009201919091525050604080516020601f8e018190048102820181019092528c815292508c91508b90819084018382808284376000920191909152506105ac92505050565b61043433876105c2565b831561047a57845460ff60401b19168555604051600181527fc7f505b2f371ae2175ee4913f4499e1f2633a7b5936321eed1cdaeb6115181d29060200160405180910390a15b50505050505050505050565b6001600160a01b0391821660009081527f52c63247e1f47db19d5ce0460030c497f067ca4cebf71ba98eeadabe20bace016020908152604080832093909416825291909152205490565b6104dd83838360016105f8565b505050565b60006104ee8484610486565b90506000198114610547578181101561053857604051637dc7a0d960e11b81526001600160a01b038416600482015260248101829052604481018390526064015b60405180910390fd5b610547848484840360006105f8565b50505050565b6001600160a01b03831661057757604051634b637e8f60e11b81526000600482015260240161052f565b6001600160a01b0382166105a15760405163ec442f0560e01b81526000600482015260240161052f565b6104dd8383836106e0565b6105b461081e565b6105be8282610869565b5050565b6001600160a01b0382166105ec5760405163ec442f0560e01b81526000600482015260240161052f565b6105be600083836106e0565b600080516020610c1f8339815191526001600160a01b0385166106315760405163e602df0560e01b81526000600482015260240161052f565b6001600160a01b03841661065b57604051634a1406b160e11b81526000600482015260240161052f565b6001600160a01b038086166000908152600183016020908152604080832093881683529290522083905581156106d957836001600160a01b0316856001600160a01b03167f8c5be1e5ebec7d5bd14f71427d1e84f3dd0314c0f7b2291e5b200ac8c7c3b925856040516106d091815260200190565b60405180910390a35b5050505050565b600080516020610c1f8339815191526001600160a01b03841661071c57818160020160008282546107119190610ad7565b9091555061078e9050565b6001600160a01b0384166000908152602082905260409020548281101561076f5760405163391434e360e21b81526001600160a01b0386166004820152602481018290526044810184905260640161052f565b6001600160a01b03851660009081526020839052604090209083900390555b6001600160a01b0383166107ac5760028101805483900390556107cb565b6001600160a01b03831660009081526020829052604090208054830190555b826001600160a01b0316846001600160a01b03167fddf252ad1be2c89b69c2b068fc378daa952ba7f163c4a11628f55a4df523b3ef8460405161081091815260200190565b60405180910390a350505050565b7ff0c57e16840df040f15088dc2f81fe391c3923bec73e23a9662efc9c229c6a0054600160401b900460ff1661086757604051631afcd79f60e31b815260040160405180910390fd5b565b61087161081e565b600080516020610c1f8339815191527f52c63247e1f47db19d5ce0460030c497f067ca4cebf71ba98eeadabe20bace036108ab8482610b5e565b50600481016105478382610b5e565b60006020808352835180602085015260005b818110156108e8578581018301518582016040015282016108cc565b506000604082860101526040601f19601f8301168501019250505092915050565b80356001600160a01b038116811461092057600080fd5b919050565b6000806040838503121561093857600080fd5b61094183610909565b946020939093013593505050565b60008060006060848603121561096457600080fd5b61096d84610909565b925061097b60208501610909565b9150604084013590509250925092565b60006020828403121561099d57600080fd5b6109a682610909565b9392505050565b60008083601f8401126109bf57600080fd5b50813567ffffffffffffffff8111156109d757600080fd5b6020830191508360208285010111156109ef57600080fd5b9250929050565b600080600080600060608688031215610a0e57600080fd5b853567ffffffffffffffff80821115610a2657600080fd5b610a3289838a016109ad565b90975095506020880135915080821115610a4b57600080fd5b50610a58888289016109ad565b96999598509660400135949350505050565b60008060408385031215610a7d57600080fd5b610a8683610909565b9150610a9460208401610909565b90509250929050565b600181811c90821680610ab157607f821691505b602082108103610ad157634e487b7160e01b600052602260045260246000fd5b50919050565b8082018082111561028757634e487b7160e01b600052601160045260246000fd5b634e487b7160e01b600052604160045260246000fd5b601f8211156104dd576000816000526020600020601f850160051c81016020861015610b375750805b601f850160051c820191505b81811015610b5657828155600101610b43565b505050505050565b815167ffffffffffffffff811115610b7857610b78610af8565b610b8c81610b868454610a9d565b84610b0e565b602080601f831160018114610bc15760008415610ba95750858301515b600019600386901b1c1916600185901b178555610b56565b600085815260208120601f198616915b82811015610bf057888601518255948401946001909101908401610bd1565b5085821015610c0e5787850151600019600388901b60f8161c191681555b5050505050600190811b0190555056fe52c63247e1f47db19d5ce0460030c497f067ca4cebf71ba98eeadabe20bace00a2646970667358221220d8874d52111c14a4c534d1da1b11fd24eb1d094362ee67da51587ee997e4a0f964736f6c63430008180033",
    "devdoc": {
        "errors": {
            "ERC20InsufficientAllowance(address,uint256,uint256)": [
                {
                    "details": "Indicates a failure with the `spender`s `allowance`. Used in transfers.",
                    "params": {
                        "allowance": "Amount of tokens a `spender` is allowed to operate with.",
                        "needed": "Minimum amount required to perform a transfer.",
                        "spender": "Address that may be allowed to operate on tokens without being their owner."
                    }
                }
            ],
            "ERC20InsufficientBalance(address,uint256,uint256)": [
                {
                    "details": "Indicates an error related to the current `balance` of a `sender`. Used in transfers.",
                    "params": {
                        "balance": "Current balance for the interacting account.",
                        "needed": "Minimum amount required to perform a transfer.",
                        "sender": "Address whose tokens are being transferred."
                    }
                }
            ],
            "ERC20InvalidApprover(address)": [
                {
                    "details": "Indicates a failure with the `approver` of a token to be approved. Used in approvals.",
                    "params": {
                        "approver": "Address initiating an approval operation."
                    }
                }
            ],
            "ERC20InvalidReceiver(address)": [
                {
                    "details": "Indicates a failure with the token `receiver`. Used in transfers.",
                    "params": {
                        "receiver": "Address to which tokens are being transferred."
                    }
                }
            ],
            "ERC20InvalidSender(address)": [
                {
                    "details": "Indicates a failure with the token `sender`. Used in transfers.",
                    "params": {
                        "sender": "Address whose tokens are being transferred."
                    }
                }
            ],
            "ERC20InvalidSpender(address)": [
                {
                    "details": "Indicates a failure with the `spender` to be approved. Used in approvals.",
                    "params": {
                        "spender": "Address that may be allowed to operate on tokens without being their owner."
                    }
                }
            ],
            "InvalidInitialization()": [
                {
                    "details": "The contract is already initialized."
                }
            ],
            "NotInitializing()": [
                {
                    "details": "The contract is not initializing."
                }
            ]
        },
        "events": {
            "Approval(address,address,uint256)": {
                "details": "Emitted when the allowance of a `spender` for an `owner` is set by a call to {approve}. `value` is the new allowance."
            },
            "Initialized(uint64)": {
                "details": "Triggered when the contract has been initialized or reinitialized."
            },
            "Transfer(address,address,uint256)": {
                "details": "Emitted when `value` tokens are moved from one account (`from`) to another (`to`). Note that `value` may be zero."
            }
        },
        "kind": "dev",
        "methods": {
            "allowance(address,address)": {
                "details": "See {IERC20-allowance}."
            },
            "approve(address,uint256)": {
                "details": "See {IERC20-approve}. NOTE: If `value` is the maximum `uint256`, the allowance is not updated on `transferFrom`. This is semantically equivalent to an infinite approval. Requirements: - `spender` cannot be the zero address."
            },
            "balanceOf(address)": {
                "details": "See {IERC20-balanceOf}."
            },
            "constructor": {
                "custom:oz-upgrades-unsafe-allow": "constructor"
            },
            "decimals()": {
                "details": "Returns the number of decimals used to get its user representation. For example, if `decimals` equals `2`, a balance of `505` tokens should be displayed to a user as `5.05` (`505 / 10 ** 2`). Tokens usually opt for a value of 18, imitating the relationship between Ether and Wei. This is the default value returned by this function, unless it's overridden. NOTE: This information is only used for _display_ purposes: it in no way affects any of the arithmetic of the contract, including {IERC20-balanceOf} and {IERC20-transfer}."
            },
            "name()": {
                "details": "Returns the name of the token."
            },
            "symbol()": {
                "details": "Returns the symbol of the token, usually a shorter version of the name."
            },
            "totalSupply()": {
                "details": "See {IERC20-totalSupply}."
            },
            "transfer(address,uint256)": {
                "details": "See {IERC20-transfer}. Requirements: - `to` cannot be the zero address. - the caller must have a balance of at least `value`."
            },
            "transferFrom(address,address,uint256)": {
                "details": "See {IERC20-transferFrom}. Emits an {Approval} event indicating the updated allowance. This is not required by the EIP. See the note at the beginning of {ERC20}. NOTE: Does not update the allowance if the current allowance is the maximum `uint256`. Requirements: - `from` and `to` cannot be the zero address. - `from` must have a balance of at least `value`. - the caller must have allowance for ``from``'s tokens of at least `value`."
            }
        },
        "version": 1
    },
    "userdoc": {
        "kind": "user",
        "methods": {},
        "version": 1
    },
    "storageLayout": {
        "storage": [],
        "types": null
    }
}