{
  "address": "0x0c30DCd71CB23c2fcE11bE9B58758C217301A214",
  "abi": [
    {
      "inputs": [],
      "stateMutability": "nonpayable",
      "type": "constructor"
    },
    {
      "inputs": [
        {
          "internalType": "address",
          "name": "account",
          "type": "address"
        }
      ],
      "name": "AddressInsufficientBalance",
      "type": "error"
    },
    {
      "inputs": [],
      "name": "AlreadyClaimed",
      "type": "error"
    },
    {
      "inputs": [],
      "name": "ClaimDateIsPending",
      "type": "error"
    },
    {
      "inputs": [],
      "name": "FailedInnerCall",
      "type": "error"
    },
    {
      "inputs": [],
      "name": "FairLaunchHasEnded",
      "type": "error"
    },
    {
      "inputs": [],
      "name": "FairLaunchIsStillLive",
      "type": "error"
    },
    {
      "inputs": [],
      "name": "InvalidInitialization",
      "type": "error"
    },
    {
      "inputs": [],
      "name": "LiquidtyIsNotYetAdded",
      "type": "error"
    },
    {
      "inputs": [],
      "name": "MathOverflowedMulDiv",
      "type": "error"
    },
    {
      "inputs": [],
      "name": "NotInitializing",
      "type": "error"
    },
    {
      "inputs": [
        {
          "internalType": "address",
          "name": "owner",
          "type": "address"
        }
      ],
      "name": "OwnableInvalidOwner",
      "type": "error"
    },
    {
      "inputs": [
        {
          "internalType": "address",
          "name": "account",
          "type": "address"
        }
      ],
      "name": "OwnableUnauthorizedAccount",
      "type": "error"
    },
    {
      "inputs": [],
      "name": "YourAmountIsZero",
      "type": "error"
    },
    {
      "anonymous": false,
      "inputs": [
        {
          "indexed": true,
          "internalType": "address",
          "name": "user",
          "type": "address"
        },
        {
          "indexed": false,
          "internalType": "uint256",
          "name": "amount",
          "type": "uint256"
        }
      ],
      "name": "Claimed",
      "type": "event"
    },
    {
      "anonymous": false,
      "inputs": [
        {
          "indexed": true,
          "internalType": "address",
          "name": "user",
          "type": "address"
        },
        {
          "indexed": false,
          "internalType": "uint256",
          "name": "amount",
          "type": "uint256"
        }
      ],
      "name": "Contribution",
      "type": "event"
    },
    {
      "anonymous": false,
      "inputs": [
        {
          "indexed": false,
          "internalType": "uint64",
          "name": "version",
          "type": "uint64"
        }
      ],
      "name": "Initialized",
      "type": "event"
    },
    {
      "anonymous": false,
      "inputs": [
        {
          "indexed": true,
          "internalType": "address",
          "name": "previousOwner",
          "type": "address"
        },
        {
          "indexed": true,
          "internalType": "address",
          "name": "newOwner",
          "type": "address"
        }
      ],
      "name": "OwnershipTransferred",
      "type": "event"
    },
    {
      "inputs": [],
      "name": "addLiquidity",
      "outputs": [],
      "stateMutability": "nonpayable",
      "type": "function"
    },
    {
      "inputs": [],
      "name": "claim",
      "outputs": [],
      "stateMutability": "nonpayable",
      "type": "function"
    },
    {
      "inputs": [
        {
          "internalType": "address",
          "name": "",
          "type": "address"
        }
      ],
      "name": "claimDate",
      "outputs": [
        {
          "internalType": "uint256",
          "name": "",
          "type": "uint256"
        }
      ],
      "stateMutability": "view",
      "type": "function"
    },
    {
      "inputs": [
        {
          "internalType": "address",
          "name": "",
          "type": "address"
        }
      ],
      "name": "claims",
      "outputs": [
        {
          "internalType": "uint256",
          "name": "",
          "type": "uint256"
        }
      ],
      "stateMutability": "view",
      "type": "function"
    },
    {
      "inputs": [],
      "name": "collectAllFees",
      "outputs": [],
      "stateMutability": "nonpayable",
      "type": "function"
    },
    {
      "inputs": [],
      "name": "contribute",
      "outputs": [],
      "stateMutability": "payable",
      "type": "function"
    },
    {
      "inputs": [
        {
          "internalType": "address",
          "name": "",
          "type": "address"
        }
      ],
      "name": "contributions",
      "outputs": [
        {
          "internalType": "uint256",
          "name": "",
          "type": "uint256"
        }
      ],
      "stateMutability": "view",
      "type": "function"
    },
    {
      "inputs": [
        {
          "components": [
            {
              "internalType": "bool",
              "name": "lpAdded",
              "type": "bool"
            },
            {
              "internalType": "address",
              "name": "sleepfinance",
              "type": "address"
            },
            {
              "internalType": "address",
              "name": "team",
              "type": "address"
            },
            {
              "internalType": "contract IERC20Minimal",
              "name": "token",
              "type": "address"
            },
            {
              "internalType": "contract IWETH9",
              "name": "weth",
              "type": "address"
            },
            {
              "internalType": "contract INonfungiblePositionManager",
              "name": "uniswap",
              "type": "address"
            },
            {
              "internalType": "uint256",
              "name": "endTime",
              "type": "uint256"
            }
          ],
          "internalType": "struct IFairLaunch.Setting",
          "name": "config",
          "type": "tuple"
        }
      ],
      "name": "initialize",
      "outputs": [],
      "stateMutability": "nonpayable",
      "type": "function"
    },
    {
      "inputs": [
        {
          "internalType": "address",
          "name": "",
          "type": "address"
        },
        {
          "internalType": "address",
          "name": "",
          "type": "address"
        },
        {
          "internalType": "uint256",
          "name": "_tokenId",
          "type": "uint256"
        },
        {
          "internalType": "bytes",
          "name": "",
          "type": "bytes"
        }
      ],
      "name": "onERC721Received",
      "outputs": [
        {
          "internalType": "bytes4",
          "name": "",
          "type": "bytes4"
        }
      ],
      "stateMutability": "nonpayable",
      "type": "function"
    },
    {
      "inputs": [],
      "name": "owner",
      "outputs": [
        {
          "internalType": "address",
          "name": "",
          "type": "address"
        }
      ],
      "stateMutability": "view",
      "type": "function"
    },
    {
      "inputs": [],
      "name": "pool",
      "outputs": [
        {
          "internalType": "address",
          "name": "",
          "type": "address"
        }
      ],
      "stateMutability": "view",
      "type": "function"
    },
    {
      "inputs": [
        {
          "internalType": "contract IERC20Minimal",
          "name": "token",
          "type": "address"
        }
      ],
      "name": "removeTokens",
      "outputs": [],
      "stateMutability": "nonpayable",
      "type": "function"
    },
    {
      "inputs": [],
      "name": "renounceOwnership",
      "outputs": [],
      "stateMutability": "nonpayable",
      "type": "function"
    },
    {
      "inputs": [],
      "name": "settings",
      "outputs": [
        {
          "components": [
            {
              "internalType": "bool",
              "name": "lpAdded",
              "type": "bool"
            },
            {
              "internalType": "address",
              "name": "sleepfinance",
              "type": "address"
            },
            {
              "internalType": "address",
              "name": "team",
              "type": "address"
            },
            {
              "internalType": "contract IERC20Minimal",
              "name": "token",
              "type": "address"
            },
            {
              "internalType": "contract IWETH9",
              "name": "weth",
              "type": "address"
            },
            {
              "internalType": "contract INonfungiblePositionManager",
              "name": "uniswap",
              "type": "address"
            },
            {
              "internalType": "uint256",
              "name": "endTime",
              "type": "uint256"
            }
          ],
          "internalType": "struct IFairLaunch.Setting",
          "name": "",
          "type": "tuple"
        }
      ],
      "stateMutability": "view",
      "type": "function"
    },
    {
      "inputs": [],
      "name": "teamClaim",
      "outputs": [],
      "stateMutability": "nonpayable",
      "type": "function"
    },
    {
      "inputs": [],
      "name": "teamHasClaimedTokens",
      "outputs": [
        {
          "internalType": "bool",
          "name": "",
          "type": "bool"
        }
      ],
      "stateMutability": "view",
      "type": "function"
    },
    {
      "inputs": [],
      "name": "tokenId",
      "outputs": [
        {
          "internalType": "uint256",
          "name": "",
          "type": "uint256"
        }
      ],
      "stateMutability": "view",
      "type": "function"
    },
    {
      "inputs": [],
      "name": "tokenomics",
      "outputs": [
        {
          "components": [
            {
              "internalType": "uint256",
              "name": "membersAllocation",
              "type": "uint256"
            },
            {
              "internalType": "uint256",
              "name": "liquidityAllocation",
              "type": "uint256"
            },
            {
              "internalType": "uint256",
              "name": "teamAllocation",
              "type": "uint256"
            },
            {
              "internalType": "uint256",
              "name": "totalContribution",
              "type": "uint256"
            }
          ],
          "internalType": "struct IFairLaunch.Tokenomics",
          "name": "",
          "type": "tuple"
        }
      ],
      "stateMutability": "view",
      "type": "function"
    },
    {
      "inputs": [
        {
          "internalType": "address",
          "name": "newOwner",
          "type": "address"
        }
      ],
      "name": "transferOwnership",
      "outputs": [],
      "stateMutability": "nonpayable",
      "type": "function"
    },
    {
      "stateMutability": "payable",
      "type": "receive"
    }
  ],
  "transactionHash": "0xa220565eb0a4187dbf98857191d02a25b291ed9c87e9a731a832e5e19866b9e5",
  "args": [],
  "numDeployments": 5,
  "solcInputHash": "c50a6f0975e024bea32343871d2ad381",
  "bytecode": "0x608060405234801561001057600080fd5b5061001961001e565b6100d0565b7ff0c57e16840df040f15088dc2f81fe391c3923bec73e23a9662efc9c229c6a00805468010000000000000000900460ff161561006e5760405163f92ee8a960e01b815260040160405180910390fd5b80546001600160401b03908116146100cd5780546001600160401b0319166001600160401b0390811782556040519081527fc7f505b2f371ae2175ee4913f4499e1f2633a7b5936321eed1cdaeb6115181d29060200160405180910390a15b50565b611d27806100df6000396000f3fe6080604052600436106101185760003560e01c80636ae146c2116100a0578063d7bb99ba11610064578063d7bb99ba1461034f578063e06174e414610357578063e8078d941461046d578063f2fde38b14610482578063fc50baf5146104a257600080fd5b80636ae146c2146102b9578063715018a6146102ce5780638949614b146102e35780638da5cb5b1461030d578063c6788bdd1461032257600080fd5b806342e94c90116100e757806342e94c90146101f857806342f667a1146102255780634ac7251d146102475780634e71d92d1461028f578063686f2c90146102a457600080fd5b80630a3e86b114610124578063150b7a021461016457806316f0115b146101aa57806317d70f7c146101e257600080fd5b3661011f57005b600080fd5b34801561013057600080fd5b5061015161013f366004611834565b60056020526000908152604090205481565b6040519081526020015b60405180910390f35b34801561017057600080fd5b5061019161017f366004611867565b5060015550630a85bd0160e11b919050565b6040516001600160e01b0319909116815260200161015b565b3480156101b657600080fd5b506002546101ca906001600160a01b031681565b6040516001600160a01b03909116815260200161015b565b3480156101ee57600080fd5b5061015160015481565b34801561020457600080fd5b50610151610213366004611834565b60036020526000908152604090205481565b34801561023157600080fd5b50610245610240366004611947565b6104c2565b005b34801561025357600080fd5b5061025c610714565b60405161015b91908151815260208083015190820152604080830151908201526060918201519181019190915260800190565b34801561029b57600080fd5b5061024561076c565b3480156102b057600080fd5b5061024561089e565b3480156102c557600080fd5b50610245610991565b3480156102da57600080fd5b50610245610a5f565b3480156102ef57600080fd5b506006546102fd9060ff1681565b604051901515815260200161015b565b34801561031957600080fd5b506101ca610a73565b34801561032e57600080fd5b5061015161033d366004611834565b60046020526000908152604090205481565b610245610aa1565b34801561036357600080fd5b506104016040805160e081018252600080825260208201819052918101829052606081018290526080810182905260a0810182905260c0810191909152506040805160e08101825260075460ff8116151582526001600160a01b036101009091048116602083015260085481169282019290925260095482166060820152600a5482166080820152600b5490911660a0820152600c5460c082015290565b60405161015b9190600060e082019050825115158252602083015160018060a01b0380821660208501528060408601511660408501528060608601511660608501528060808601511660808501528060a08601511660a0850152505060c083015160c083015292915050565b34801561047957600080fd5b50610245610b67565b34801561048e57600080fd5b5061024561049d366004611834565b610bea565b3480156104ae57600080fd5b506102456104bd366004611834565b610c2a565b7ff0c57e16840df040f15088dc2f81fe391c3923bec73e23a9662efc9c229c6a008054600160401b810460ff16159067ffffffffffffffff166000811580156105085750825b905060008267ffffffffffffffff1660011480156105255750303b155b905081158015610533575080155b156105515760405163f92ee8a960e01b815260040160405180910390fd5b845467ffffffffffffffff19166001178555831561057b57845460ff60401b1916600160401b1785555b61059361058e6040880160208901611834565b610d78565b8560076105a0828261199a565b50506000805462ffffff191662f2761817908190556105c19060020b611a69565b6000805468ffffffffffff0000001916630100000062ffffff939093169290920268ffffff000000000000191691909117663c0000000000001781556009546040516370a0823160e01b81523060048201526001600160a01b03909116906370a0823190602401602060405180830381865afa158015610645573d6000803e3d6000fd5b505050506040513d601f19601f820116820180604052508101906106699190611a8b565b9050610676600282611aba565b600d5561068881610fa0612710610d89565b600e5561069a816103e8612710610d89565b600f556106aa426220f580611ace565b6008546001600160a01b031660009081526005602052604090205550831561070c57845460ff60401b19168555604051600181527fc7f505b2f371ae2175ee4913f4499e1f2633a7b5936321eed1cdaeb6115181d29060200160405180910390a15b505050505050565b61073f6040518060800160405280600081526020016000815260200160008152602001600081525090565b5060408051608081018252600d548152600e546020820152600f5491810191909152601054606082015290565b60075460ff1661078f57604051630c2daf9b60e11b815260040160405180910390fd5b336000908152600560205260409020544210156107bf5760405163312d6e6b60e11b815260040160405180910390fd5b33600090815260046020526040902054156107ed57604051630c8d9eab60e31b815260040160405180910390fd5b33600090815260036020526040902054600d5460105461080e929190610d89565b33600081815260046020819052604091829020849055600954915163a9059cbb60e01b81529081019290925260248201929092526001600160a01b039091169063a9059cbb906044015b6020604051808303816000875af1158015610877573d6000803e3d6000fd5b505050506040513d601f19601f8201168201806040525081019061089b9190611ae1565b50565b60075460ff166108c157604051630c2daf9b60e11b815260040160405180910390fd5b6000604051806080016040528060015481526020016108de610a73565b6001600160a01b0390811682526001600160801b0360208084018290526040938401829052600b54845163fc6f786560e01b8152865160048201529186015184166024830152938501518216604482015260608501519091166064820152929350169063fc6f78659060840160408051808303816000875af1158015610968573d6000803e3d6000fd5b505050506040513d601f19601f8201168201806040525081019061098c9190611afe565b505050565b60075460ff166109b457604051630c2daf9b60e11b815260040160405180910390fd5b6008546001600160a01b03166000908152600560205260409020544210156109ef5760405163312d6e6b60e11b815260040160405180910390fd5b60065460ff1615610a1357604051630c8d9eab60e31b815260040160405180910390fd5b6006805460ff19166001179055600954600854600f5460405163a9059cbb60e01b81526001600160a01b039283166004820152602481019190915291169063a9059cbb90604401610858565b610a67610e4e565b610a716000610e80565b565b7f9016d09d72d40fdae2fd8ceac6b6234c7706214fd39c1cd1e609a0528c199300546001600160a01b031690565b600c54421115610ac457604051634963a92360e11b815260040160405180910390fd5b3360009081526003602052604081208054349290610ae3908490611ace565b90915550610af6905042620d2f00611ace565b336000908152600560205260408120919091556011805491610b1783611b22565b9190505550610b233390565b6001600160a01b03167f4d154d4aae216bed6d0926db77c00df2b57c6b5ba4eee05775de20facede3a7b34604051610b5d91815260200190565b60405180910390a2565b600c54421015610b8a576040516306dcd0a160e41b815260040160405180910390fd5b47610baf610b9d6103e883612710610d89565b6008546001600160a01b031690610ef1565b610bd8610bc16101f483612710610d89565b60075461010090046001600160a01b031690610ef1565b47601055610be4610f88565b50505050565b610bf2610e4e565b6001600160a01b038116610c2157604051631e4fbdf760e01b8152600060048201526024015b60405180910390fd5b61089b81610e80565b610c3762278d0042611b3b565b600c541115610c5957604051630c2daf9b60e11b815260040160405180910390fd5b6040516370a0823160e01b81523060048201526000906001600160a01b038316906370a0823190602401602060405180830381865afa158015610ca0573d6000803e3d6000fd5b505050506040513d601f19601f82011682018060405250810190610cc49190611a8b565b90508015610d5657816001600160a01b031663a9059cbb610ce3610a73565b6040516001600160e01b031960e084901b1681526001600160a01b039091166004820152602481018490526044016020604051808303816000875af1158015610d30573d6000803e3d6000fd5b505050506040513d601f19601f82011682018060405250810190610d549190611ae1565b505b47801561098c5761098c81610d69610a73565b6001600160a01b031690610ef1565b610d806113d2565b61089b8161141b565b6000838302816000198587098281108382030391505080600003610dc057838281610db657610db6611aa4565b0492505050610e47565b808411610de05760405163227bc15360e01b815260040160405180910390fd5b6000848688096000868103871696879004966002600389028118808a02820302808a02820302808a02820302808a02820302808a02820302808a02909103029181900381900460010186841190950394909402919094039290920491909117919091029150505b9392505050565b33610e57610a73565b6001600160a01b031614610a715760405163118cdaa760e01b8152336004820152602401610c18565b7f9016d09d72d40fdae2fd8ceac6b6234c7706214fd39c1cd1e609a0528c19930080546001600160a01b031981166001600160a01b03848116918217845560405192169182907f8be0079c531659141344cd1fd0a4f28419497f9722a3daafe3b4186f6b6457e090600090a3505050565b80471015610f145760405163cd78605960e01b8152306004820152602401610c18565b6000826001600160a01b03168260405160006040518083038185875af1925050503d8060008114610f61576040519150601f19603f3d011682016040523d82523d6000602084013e610f66565b606091505b505090508061098c57604051630a12f52160e11b815260040160405180910390fd5b600e54600a5460408051630d0e30db60e41b8152905160009384938493919247926001600160a01b039092169163d0e30db0918491600480820192899290919082900301818588803b158015610fdd57600080fd5b505af1158015610ff1573d6000803e3d6000fd5b5050600a546040516370a0823160e01b8152306004820152600094506001600160a01b0390911692506370a082319150602401602060405180830381865afa158015611041573d6000803e3d6000fd5b505050506040513d601f19601f820116820180604052508101906110659190611a8b565b90506110718382611423565b600954600b5460405163095ea7b360e01b81526001600160a01b0391821660048201526024810186905291169063095ea7b3906044016020604051808303816000875af11580156110c6573d6000803e3d6000fd5b505050506040513d601f19601f820116820180604052508101906110ea9190611ae1565b50600a54600b5460405163095ea7b360e01b81526001600160a01b0391821660048201526024810184905291169063095ea7b3906044016020604051808303816000875af1158015611140573d6000803e3d6000fd5b505050506040513d601f19601f820116820180604052508101906111649190611ae1565b5060408051610160810182526009546001600160a01b039081168252600a54166020820152610bb89181019190915260008054909190606082019066010000000000008104600290810b916111bc918391900b611b4e565b6111c69190611b88565b600290810b825260005460209092019166010000000000008104820b916111f89183916301000000909104900b611b4e565b6112029190611b88565b60020b815260208101869052604080820185905260006060830181905260808301523060a08301524260c090920191909152600b549051634418b22b60e11b81529192506001600160a01b031690638831645690611264908490600401611baf565b6080604051808303816000875af1158015611283573d6000803e3d6000fd5b505050506040513d601f19601f820116820180604052508101906112a79190611c73565b600193909355909850965094508386101561133757600954600b5460405163095ea7b360e01b81526001600160a01b0391821660048201526000602482015291169063095ea7b3906044016020604051808303816000875af1158015611311573d6000803e3d6000fd5b505050506040513d601f19601f820116820180604052508101906113359190611ae1565b505b818510156113ba57600a54600b5460405163095ea7b360e01b81526001600160a01b0391821660048201526000602482015291169063095ea7b3906044016020604051808303816000875af1158015611394573d6000803e3d6000fd5b505050506040513d601f19601f820116820180604052508101906113b89190611ae1565b505b50506007805460ff1916600117905550929391925090565b7ff0c57e16840df040f15088dc2f81fe391c3923bec73e23a9662efc9c229c6a0054600160401b900460ff16610a7157604051631afcd79f60e31b815260040160405180910390fd5b610bf26113d2565b600a5460095460009182918291611448916001600160a01b0391821691168787611501565b600b546040516309f56ab160e11b81526001600160a01b0380861660048301528085166024830152610bb86044830152808416606483015294975092955090935091909116906313ead562906084016020604051808303816000875af11580156114b6573d6000803e3d6000fd5b505050506040513d601f19601f820116820180604052508101906114da9190611cbd565b600280546001600160a01b0319166001600160a01b03929092169190911790555050505050565b60008060006115108787611550565b90935091506001600160a01b03808416908816146115395761153284866115ed565b9050611546565b61154385856115ed565b90505b9450945094915050565b6000806001600160a01b0384161580159061157357506001600160a01b03831615155b6115bf5760405162461bcd60e51b815260206004820152601f60248201527f546f6b656e206164647265737365732063616e6e6f74206265207a65726f2e006044820152606401610c18565b826001600160a01b0316846001600160a01b0316106115df5782846115e2565b83835b909590945092505050565b600080831180156115fe5750600082115b61164a5760405162461bcd60e51b815260206004820152601960248201527f5265736572766573206d75737420626520706f736974697665000000000000006044820152606401610c18565b6000600160601b61167a6064866116618288611cda565b61166b9190611aba565b6116759190611aba565b61168c565b6116849190611cda565b949350505050565b60008160000361169e57506000919050565b600060016116ab84611774565b901c6001901b905060018184816116c4576116c4611aa4565b048201901c905060018184816116dc576116dc611aa4565b048201901c905060018184816116f4576116f4611aa4565b048201901c9050600181848161170c5761170c611aa4565b048201901c9050600181848161172457611724611aa4565b048201901c9050600181848161173c5761173c611aa4565b048201901c9050600181848161175457611754611aa4565b048201901c9050610e478182858161176e5761176e611aa4565b04611809565b600080608083901c1561178957608092831c92015b604083901c1561179b57604092831c92015b602083901c156117ad57602092831c92015b601083901c156117bf57601092831c92015b600883901c156117d157600892831c92015b600483901c156117e357600492831c92015b600283901c156117f557600292831c92015b600183901c15611803576001015b92915050565b60008183106118185781610e47565b5090919050565b6001600160a01b038116811461089b57600080fd5b60006020828403121561184657600080fd5b8135610e478161181f565b634e487b7160e01b600052604160045260246000fd5b6000806000806080858703121561187d57600080fd5b84356118888161181f565b935060208501356118988161181f565b925060408501359150606085013567ffffffffffffffff808211156118bc57600080fd5b818701915087601f8301126118d057600080fd5b8135818111156118e2576118e2611851565b604051601f8201601f19908116603f0116810190838211818310171561190a5761190a611851565b816040528281528a602084870101111561192357600080fd5b82602086016020830137600060208483010152809550505050505092959194509250565b600060e0828403121561195957600080fd5b50919050565b801515811461089b57600080fd5b600081356118038161181f565b80546001600160a01b0319166001600160a01b0392909216919091179055565b81356119a58161195f565b815490151560ff1660ff199190911617815560208201356119c58161181f565b8154610100600160a81b031916600882901b610100600160a81b0316178255506119fd6119f46040840161196d565b6001830161197a565b611a15611a0c6060840161196d565b6002830161197a565b611a2d611a246080840161196d565b6003830161197a565b611a45611a3c60a0840161196d565b6004830161197a565b60c082013560058201555050565b634e487b7160e01b600052601160045260246000fd5b60008160020b627fffff198103611a8257611a82611a53565b60000392915050565b600060208284031215611a9d57600080fd5b5051919050565b634e487b7160e01b600052601260045260246000fd5b600082611ac957611ac9611aa4565b500490565b8082018082111561180357611803611a53565b600060208284031215611af357600080fd5b8151610e478161195f565b60008060408385031215611b1157600080fd5b505080516020909101519092909150565b600060018201611b3457611b34611a53565b5060010190565b8181038181111561180357611803611a53565b60008160020b8360020b80611b6557611b65611aa4565b627fffff19821460001982141615611b7f57611b7f611a53565b90059392505050565b60008260020b8260020b028060020b9150808214611ba857611ba8611a53565b5092915050565b81516001600160a01b0316815261016081016020830151611bdb60208401826001600160a01b03169052565b506040830151611bf2604084018262ffffff169052565b506060830151611c07606084018260020b9052565b506080830151611c1c608084018260020b9052565b5060a083015160a083015260c083015160c083015260e083015160e083015261010080840151818401525061012080840151611c62828501826001600160a01b03169052565b505061014092830151919092015290565b60008060008060808587031215611c8957600080fd5b8451935060208501516001600160801b0381168114611ca757600080fd5b6040860151606090960151949790965092505050565b600060208284031215611ccf57600080fd5b8151610e478161181f565b808202811582820484141761180357611803611a5356fea2646970667358221220d645be11504b425fadd821352b1582543073122d05152e7b91100ee79dad398264736f6c63430008140033",
  "devdoc": {
    "errors": {
      "AddressInsufficientBalance(address)": [
        {
          "details": "The ETH balance of the account is not enough to perform the operation."
        }
      ],
      "FailedInnerCall()": [
        {
          "details": "A call to an address target failed. The target may have reverted."
        }
      ],
      "InvalidInitialization()": [
        {
          "details": "The contract is already initialized."
        }
      ],
      "MathOverflowedMulDiv()": [
        {
          "details": "Muldiv operation overflow."
        }
      ],
      "NotInitializing()": [
        {
          "details": "The contract is not initializing."
        }
      ],
      "OwnableInvalidOwner(address)": [
        {
          "details": "The owner is not a valid owner account. (eg. `address(0)`)"
        }
      ],
      "OwnableUnauthorizedAccount(address)": [
        {
          "details": "The caller account is not authorized to perform an operation."
        }
      ]
    },
    "events": {
      "Initialized(uint64)": {
        "details": "Triggered when the contract has been initialized or reinitialized."
      }
    },
    "kind": "dev",
    "methods": {
      "owner()": {
        "details": "Returns the address of the current owner."
      },
      "renounceOwnership()": {
        "details": "Leaves the contract without owner. It will not be possible to call `onlyOwner` functions. Can only be called by the current owner. NOTE: Renouncing ownership will leave the contract without an owner, thereby disabling any functionality that is only available to the owner."
      },
      "transferOwnership(address)": {
        "details": "Transfers ownership of the contract to a new account (`newOwner`). Can only be called by the current owner."
      }
    },
    "version": 1
  },
  "userdoc": {
    "kind": "user",
    "methods": {
      "addLiquidity()": {
        "notice": "Add Liquiduity after sale date ends"
      },
      "collectAllFees()": {
        "notice": "project dev can collect fees"
      },
      "removeTokens(address)": {
        "notice": "project dev remove any ERC20Tokens Sent here after Launch"
      }
    },
    "version": 1
  },
  "storageLayout": {
    "storage": [
      {
        "astId": 3434,
        "contract": "contracts/Fairlaunch.sol:Fairlaunch",
        "label": "MIN_TICK",
        "offset": 0,
        "slot": "0",
        "type": "t_int24"
      },
      {
        "astId": 3436,
        "contract": "contracts/Fairlaunch.sol:Fairlaunch",
        "label": "MAX_TICK",
        "offset": 3,
        "slot": "0",
        "type": "t_int24"
      },
      {
        "astId": 3438,
        "contract": "contracts/Fairlaunch.sol:Fairlaunch",
        "label": "TICK_SPACING",
        "offset": 6,
        "slot": "0",
        "type": "t_int24"
      },
      {
        "astId": 3440,
        "contract": "contracts/Fairlaunch.sol:Fairlaunch",
        "label": "tokenId",
        "offset": 0,
        "slot": "1",
        "type": "t_uint256"
      },
      {
        "astId": 3442,
        "contract": "contracts/Fairlaunch.sol:Fairlaunch",
        "label": "pool",
        "offset": 0,
        "slot": "2",
        "type": "t_address"
      },
      {
        "astId": 3446,
        "contract": "contracts/Fairlaunch.sol:Fairlaunch",
        "label": "contributions",
        "offset": 0,
        "slot": "3",
        "type": "t_mapping(t_address,t_uint256)"
      },
      {
        "astId": 3450,
        "contract": "contracts/Fairlaunch.sol:Fairlaunch",
        "label": "claims",
        "offset": 0,
        "slot": "4",
        "type": "t_mapping(t_address,t_uint256)"
      },
      {
        "astId": 3454,
        "contract": "contracts/Fairlaunch.sol:Fairlaunch",
        "label": "claimDate",
        "offset": 0,
        "slot": "5",
        "type": "t_mapping(t_address,t_uint256)"
      },
      {
        "astId": 3456,
        "contract": "contracts/Fairlaunch.sol:Fairlaunch",
        "label": "teamHasClaimedTokens",
        "offset": 0,
        "slot": "6",
        "type": "t_bool"
      },
      {
        "astId": 3459,
        "contract": "contracts/Fairlaunch.sol:Fairlaunch",
        "label": "_settings",
        "offset": 0,
        "slot": "7",
        "type": "t_struct(Setting)4302_storage"
      },
      {
        "astId": 3462,
        "contract": "contracts/Fairlaunch.sol:Fairlaunch",
        "label": "_tokenomics",
        "offset": 0,
        "slot": "13",
        "type": "t_struct(Tokenomics)4311_storage"
      },
      {
        "astId": 3464,
        "contract": "contracts/Fairlaunch.sol:Fairlaunch",
        "label": "count",
        "offset": 0,
        "slot": "17",
        "type": "t_uint256"
      }
    ],
    "types": {
      "t_address": {
        "encoding": "inplace",
        "label": "address",
        "numberOfBytes": "20"
      },
      "t_bool": {
        "encoding": "inplace",
        "label": "bool",
        "numberOfBytes": "1"
      },
      "t_contract(IERC20Minimal)4266": {
        "encoding": "inplace",
        "label": "contract IERC20Minimal",
        "numberOfBytes": "20"
      },
      "t_contract(INonfungiblePositionManager)4516": {
        "encoding": "inplace",
        "label": "contract INonfungiblePositionManager",
        "numberOfBytes": "20"
      },
      "t_contract(IWETH9)4787": {
        "encoding": "inplace",
        "label": "contract IWETH9",
        "numberOfBytes": "20"
      },
      "t_int24": {
        "encoding": "inplace",
        "label": "int24",
        "numberOfBytes": "3"
      },
      "t_mapping(t_address,t_uint256)": {
        "encoding": "mapping",
        "key": "t_address",
        "label": "mapping(address => uint256)",
        "numberOfBytes": "32",
        "value": "t_uint256"
      },
      "t_struct(Setting)4302_storage": {
        "encoding": "inplace",
        "label": "struct IFairLaunch.Setting",
        "members": [
          {
            "astId": 4286,
            "contract": "contracts/Fairlaunch.sol:Fairlaunch",
            "label": "lpAdded",
            "offset": 0,
            "slot": "0",
            "type": "t_bool"
          },
          {
            "astId": 4288,
            "contract": "contracts/Fairlaunch.sol:Fairlaunch",
            "label": "sleepfinance",
            "offset": 1,
            "slot": "0",
            "type": "t_address"
          },
          {
            "astId": 4290,
            "contract": "contracts/Fairlaunch.sol:Fairlaunch",
            "label": "team",
            "offset": 0,
            "slot": "1",
            "type": "t_address"
          },
          {
            "astId": 4293,
            "contract": "contracts/Fairlaunch.sol:Fairlaunch",
            "label": "token",
            "offset": 0,
            "slot": "2",
            "type": "t_contract(IERC20Minimal)4266"
          },
          {
            "astId": 4296,
            "contract": "contracts/Fairlaunch.sol:Fairlaunch",
            "label": "weth",
            "offset": 0,
            "slot": "3",
            "type": "t_contract(IWETH9)4787"
          },
          {
            "astId": 4299,
            "contract": "contracts/Fairlaunch.sol:Fairlaunch",
            "label": "uniswap",
            "offset": 0,
            "slot": "4",
            "type": "t_contract(INonfungiblePositionManager)4516"
          },
          {
            "astId": 4301,
            "contract": "contracts/Fairlaunch.sol:Fairlaunch",
            "label": "endTime",
            "offset": 0,
            "slot": "5",
            "type": "t_uint256"
          }
        ],
        "numberOfBytes": "192"
      },
      "t_struct(Tokenomics)4311_storage": {
        "encoding": "inplace",
        "label": "struct IFairLaunch.Tokenomics",
        "members": [
          {
            "astId": 4304,
            "contract": "contracts/Fairlaunch.sol:Fairlaunch",
            "label": "membersAllocation",
            "offset": 0,
            "slot": "0",
            "type": "t_uint256"
          },
          {
            "astId": 4306,
            "contract": "contracts/Fairlaunch.sol:Fairlaunch",
            "label": "liquidityAllocation",
            "offset": 0,
            "slot": "1",
            "type": "t_uint256"
          },
          {
            "astId": 4308,
            "contract": "contracts/Fairlaunch.sol:Fairlaunch",
            "label": "teamAllocation",
            "offset": 0,
            "slot": "2",
            "type": "t_uint256"
          },
          {
            "astId": 4310,
            "contract": "contracts/Fairlaunch.sol:Fairlaunch",
            "label": "totalContribution",
            "offset": 0,
            "slot": "3",
            "type": "t_uint256"
          }
        ],
        "numberOfBytes": "128"
      },
      "t_uint256": {
        "encoding": "inplace",
        "label": "uint256",
        "numberOfBytes": "32"
      }
    }
  }
}