{
  "address": "0x4151077739df7cF36b7271913D195C67B3D3E2F9",
  "abi": [
    {
      "inputs": [
        {
          "internalType": "address",
          "name": "_positionManager",
          "type": "address"
        }
      ],
      "stateMutability": "nonpayable",
      "type": "constructor"
    },
    {
      "inputs": [],
      "name": "InvalidInitialization",
      "type": "error"
    },
    {
      "inputs": [],
      "name": "LockPeriodNotEnded",
      "type": "error"
    },
    {
      "inputs": [],
      "name": "NFTAlreadyLocked",
      "type": "error"
    },
    {
      "inputs": [],
      "name": "NFTNotLocked",
      "type": "error"
    },
    {
      "inputs": [],
      "name": "NotInitializing",
      "type": "error"
    },
    {
      "inputs": [],
      "name": "NotNFTOwner",
      "type": "error"
    },
    {
      "inputs": [
        {
          "internalType": "address",
          "name": "owner",
          "type": "address"
        }
      ],
      "name": "OwnableInvalidOwner",
      "type": "error"
    },
    {
      "inputs": [
        {
          "internalType": "address",
          "name": "account",
          "type": "address"
        }
      ],
      "name": "OwnableUnauthorizedAccount",
      "type": "error"
    },
    {
      "inputs": [],
      "name": "ReentrancyGuardReentrantCall",
      "type": "error"
    },
    {
      "anonymous": false,
      "inputs": [
        {
          "indexed": true,
          "internalType": "address",
          "name": "owner",
          "type": "address"
        },
        {
          "indexed": true,
          "internalType": "uint256",
          "name": "tokenId",
          "type": "uint256"
        },
        {
          "indexed": false,
          "internalType": "address",
          "name": "token0",
          "type": "address"
        },
        {
          "indexed": false,
          "internalType": "address",
          "name": "token1",
          "type": "address"
        },
        {
          "indexed": false,
          "internalType": "uint256",
          "name": "amount0",
          "type": "uint256"
        },
        {
          "indexed": false,
          "internalType": "uint256",
          "name": "amount1",
          "type": "uint256"
        }
      ],
      "name": "FeesClaimed",
      "type": "event"
    },
    {
      "anonymous": false,
      "inputs": [
        {
          "indexed": false,
          "internalType": "uint64",
          "name": "version",
          "type": "uint64"
        }
      ],
      "name": "Initialized",
      "type": "event"
    },
    {
      "anonymous": false,
      "inputs": [
        {
          "indexed": true,
          "internalType": "address",
          "name": "owner",
          "type": "address"
        },
        {
          "indexed": true,
          "internalType": "uint256",
          "name": "tokenId",
          "type": "uint256"
        }
      ],
      "name": "NFTLocked",
      "type": "event"
    },
    {
      "anonymous": false,
      "inputs": [
        {
          "indexed": true,
          "internalType": "address",
          "name": "owner",
          "type": "address"
        },
        {
          "indexed": true,
          "internalType": "uint256",
          "name": "tokenId",
          "type": "uint256"
        }
      ],
      "name": "NFTUnlocked",
      "type": "event"
    },
    {
      "anonymous": false,
      "inputs": [
        {
          "indexed": true,
          "internalType": "address",
          "name": "previousOwner",
          "type": "address"
        },
        {
          "indexed": true,
          "internalType": "address",
          "name": "newOwner",
          "type": "address"
        }
      ],
      "name": "OwnershipTransferStarted",
      "type": "event"
    },
    {
      "anonymous": false,
      "inputs": [
        {
          "indexed": true,
          "internalType": "address",
          "name": "previousOwner",
          "type": "address"
        },
        {
          "indexed": true,
          "internalType": "address",
          "name": "newOwner",
          "type": "address"
        }
      ],
      "name": "OwnershipTransferred",
      "type": "event"
    },
    {
      "inputs": [],
      "name": "LOCK_DURATION",
      "outputs": [
        {
          "internalType": "uint256",
          "name": "",
          "type": "uint256"
        }
      ],
      "stateMutability": "view",
      "type": "function"
    },
    {
      "inputs": [],
      "name": "UNISWAP_V3_POSITION_MANAGER",
      "outputs": [
        {
          "internalType": "address",
          "name": "",
          "type": "address"
        }
      ],
      "stateMutability": "view",
      "type": "function"
    },
    {
      "inputs": [],
      "name": "acceptOwnership",
      "outputs": [],
      "stateMutability": "nonpayable",
      "type": "function"
    },
    {
      "inputs": [
        {
          "internalType": "uint256",
          "name": "tokenId",
          "type": "uint256"
        }
      ],
      "name": "checkAvailableFees",
      "outputs": [
        {
          "internalType": "uint256",
          "name": "amount0",
          "type": "uint256"
        },
        {
          "internalType": "uint256",
          "name": "amount1",
          "type": "uint256"
        }
      ],
      "stateMutability": "view",
      "type": "function"
    },
    {
      "inputs": [
        {
          "internalType": "uint256",
          "name": "tokenId",
          "type": "uint256"
        },
        {
          "internalType": "address",
          "name": "token0",
          "type": "address"
        },
        {
          "internalType": "address",
          "name": "token1",
          "type": "address"
        }
      ],
      "name": "claimFees",
      "outputs": [
        {
          "internalType": "uint256",
          "name": "amount0",
          "type": "uint256"
        },
        {
          "internalType": "uint256",
          "name": "amount1",
          "type": "uint256"
        }
      ],
      "stateMutability": "nonpayable",
      "type": "function"
    },
    {
      "inputs": [
        {
          "internalType": "address",
          "name": "owner",
          "type": "address"
        }
      ],
      "name": "getNFTsByOwner",
      "outputs": [
        {
          "internalType": "uint256[]",
          "name": "",
          "type": "uint256[]"
        }
      ],
      "stateMutability": "view",
      "type": "function"
    },
    {
      "inputs": [
        {
          "internalType": "uint256",
          "name": "tokenId",
          "type": "uint256"
        }
      ],
      "name": "getRemainingLockTime",
      "outputs": [
        {
          "internalType": "uint256",
          "name": "",
          "type": "uint256"
        }
      ],
      "stateMutability": "view",
      "type": "function"
    },
    {
      "inputs": [],
      "name": "initialize",
      "outputs": [],
      "stateMutability": "nonpayable",
      "type": "function"
    },
    {
      "inputs": [
        {
          "internalType": "uint256",
          "name": "tokenId",
          "type": "uint256"
        }
      ],
      "name": "isNFTLocked",
      "outputs": [
        {
          "internalType": "bool",
          "name": "",
          "type": "bool"
        }
      ],
      "stateMutability": "view",
      "type": "function"
    },
    {
      "inputs": [
        {
          "internalType": "uint256",
          "name": "tokenId",
          "type": "uint256"
        }
      ],
      "name": "lockNFT",
      "outputs": [],
      "stateMutability": "nonpayable",
      "type": "function"
    },
    {
      "inputs": [
        {
          "internalType": "uint256",
          "name": "",
          "type": "uint256"
        }
      ],
      "name": "lockedNFTs",
      "outputs": [
        {
          "internalType": "address",
          "name": "owner",
          "type": "address"
        },
        {
          "internalType": "uint256",
          "name": "tokenId",
          "type": "uint256"
        },
        {
          "internalType": "bool",
          "name": "isLocked",
          "type": "bool"
        },
        {
          "internalType": "uint256",
          "name": "lockedAt",
          "type": "uint256"
        }
      ],
      "stateMutability": "view",
      "type": "function"
    },
    {
      "inputs": [
        {
          "internalType": "address",
          "name": "",
          "type": "address"
        },
        {
          "internalType": "address",
          "name": "",
          "type": "address"
        },
        {
          "internalType": "uint256",
          "name": "",
          "type": "uint256"
        },
        {
          "internalType": "bytes",
          "name": "",
          "type": "bytes"
        }
      ],
      "name": "onERC721Received",
      "outputs": [
        {
          "internalType": "bytes4",
          "name": "",
          "type": "bytes4"
        }
      ],
      "stateMutability": "pure",
      "type": "function"
    },
    {
      "inputs": [],
      "name": "owner",
      "outputs": [
        {
          "internalType": "address",
          "name": "",
          "type": "address"
        }
      ],
      "stateMutability": "view",
      "type": "function"
    },
    {
      "inputs": [
        {
          "internalType": "address",
          "name": "",
          "type": "address"
        },
        {
          "internalType": "uint256",
          "name": "",
          "type": "uint256"
        }
      ],
      "name": "ownerNFTs",
      "outputs": [
        {
          "internalType": "uint256",
          "name": "",
          "type": "uint256"
        }
      ],
      "stateMutability": "view",
      "type": "function"
    },
    {
      "inputs": [],
      "name": "pendingOwner",
      "outputs": [
        {
          "internalType": "address",
          "name": "",
          "type": "address"
        }
      ],
      "stateMutability": "view",
      "type": "function"
    },
    {
      "inputs": [],
      "name": "positionManager",
      "outputs": [
        {
          "internalType": "contract INonfungiblePositionManager",
          "name": "",
          "type": "address"
        }
      ],
      "stateMutability": "view",
      "type": "function"
    },
    {
      "inputs": [],
      "name": "renounceOwnership",
      "outputs": [],
      "stateMutability": "nonpayable",
      "type": "function"
    },
    {
      "inputs": [
        {
          "internalType": "address",
          "name": "newOwner",
          "type": "address"
        }
      ],
      "name": "transferOwnership",
      "outputs": [],
      "stateMutability": "nonpayable",
      "type": "function"
    },
    {
      "inputs": [
        {
          "internalType": "uint256",
          "name": "tokenId",
          "type": "uint256"
        }
      ],
      "name": "unlockNFT",
      "outputs": [],
      "stateMutability": "nonpayable",
      "type": "function"
    }
  ],
  "transactionHash": "0x1417252f052f9bebea4ef57f9d069488812fe0febd87b3e53b24170928868d78",
  "args": [
    "0x1238536071E1c677A632429e3655c799b22cDA52"
  ],
  "numDeployments": 1,
  "solcInputHash": "39d24220dd0817784195428b2f7076f6",
  "bytecode": "0x60a060405234801561001057600080fd5b5060405161144738038061144783398101604081905261002f916100fa565b610037610048565b6001600160a01b031660805261012a565b7ff0c57e16840df040f15088dc2f81fe391c3923bec73e23a9662efc9c229c6a00805468010000000000000000900460ff16156100985760405163f92ee8a960e01b815260040160405180910390fd5b80546001600160401b03908116146100f75780546001600160401b0319166001600160401b0390811782556040519081527fc7f505b2f371ae2175ee4913f4499e1f2633a7b5936321eed1cdaeb6115181d29060200160405180910390a15b50565b60006020828403121561010c57600080fd5b81516001600160a01b038116811461012357600080fd5b9392505050565b6080516112fb61014c600039600081816102da01526107c301526112fb6000f3fe608060405234801561001057600080fd5b50600436106101215760003560e01c806379ba5097116100ad578063e2afe8b311610071578063e2afe8b3146102fc578063e30c39781461031c578063f2fde38b14610324578063f826276c14610337578063fbb8e6081461034a57600080fd5b806379ba5097146102485780638129fc1c146102505780638da5cb5b14610258578063945633c11461026057806394cbab9d146102d557600080fd5b80632b7170d0116100f45780632b7170d0146101e2578063485d3834146101f75780636be9479b14610202578063715018a614610215578063791b98bc1461021d57600080fd5b8063150b7a02146101265780631a5a3b861461016357806321806bf91461019957806324f50dd2146101ba575b600080fd5b610145610134366004610f3f565b630a85bd0160e11b95945050505050565b6040516001600160e01b031990911681526020015b60405180910390f35b610189610171366004610fde565b60009081526001602052604090206002015460ff1690565b604051901515815260200161015a565b6101ac6101a7366004610fde565b61035d565b60405190815260200161015a565b6101cd6101c8366004610fde565b6103bb565b6040805192835260208301919091520161015a565b6101f56101f0366004610fde565b6104c4565b005b6101ac6312cc030081565b6101ac610210366004610ff7565b61065a565b6101f561068b565b600054610230906001600160a01b031681565b6040516001600160a01b03909116815260200161015a565b6101f561069f565b6101f56106e9565b61023061083b565b6102a561026e366004610fde565b600160208190526000918252604090912080549181015460028201546003909201546001600160a01b0390931692909160ff169084565b604080516001600160a01b039095168552602085019390935290151591830191909152606082015260800161015a565b6102307f000000000000000000000000000000000000000000000000000000000000000081565b61030f61030a366004611023565b610870565b60405161015a9190611047565b6102306108dc565b6101f5610332366004611023565b610905565b6101f5610345366004610fde565b61098a565b6101cd61035836600461108b565b610aea565b6000818152600160205260408120600281015460ff166103805750600092915050565b60006312cc0300826003015461039691906110e3565b90508042106103a9575060009392505050565b6103b342826110fc565b949350505050565b600081815260016020526040812060020154819060ff166103ef57604051630c0144e560e11b815260040160405180910390fd5b6000805460405163133f757160e31b81526004810186905282918291829182916001600160a01b03909116906399fbab889060240161018060405180830381865afa158015610442573d6000803e3d6000fd5b505050506040513d601f19601f82011682018060405250810190610466919061115b565b9b509b509b509b509b5050505050505050816001600160801b03169650806001600160801b031695506000856001600160801b031611156104ba576104ab84886110e3565b96506104b783876110e3565b95505b5050505050915091565b6104cc610c87565b60008181526001602052604090206002015460ff16156104ff57604051630fb1583f60e21b815260040160405180910390fd5b6000546001600160a01b03166342842e0e336040516001600160e01b031960e084901b1681526001600160a01b03909116600482015230602482015260448101849052606401600060405180830381600087803b15801561055f57600080fd5b505af1158015610573573d6000803e3d6000fd5b5050505060405180608001604052806105893390565b6001600160a01b039081168252602080830185905260016040808501829052426060958601526000878152828452818120875181546001600160a01b03191696169590951785558684015185840155868201516002808701805460ff19169215159290921790915596909501516003909401939093553380855294825282842080549182018155845290832001849055518392917fa9262575db5f22d8b54192efce38602ac59d04bcdbcba1962fc351473de5614691a361065760016000805160206112a683398151915255565b50565b6002602052816000526040600020818154811061067657600080fd5b90600052602060002001600091509150505481565b610693610cd3565b61069d6000610d05565b565b33806106a96108dc565b6001600160a01b0316146106e05760405163118cdaa760e01b81526001600160a01b03821660048201526024015b60405180910390fd5b61065781610d05565b7ff0c57e16840df040f15088dc2f81fe391c3923bec73e23a9662efc9c229c6a008054600160401b810460ff16159067ffffffffffffffff1660008115801561072f5750825b905060008267ffffffffffffffff16600114801561074c5750303b155b90508115801561075a575080155b156107785760405163f92ee8a960e01b815260040160405180910390fd5b845467ffffffffffffffff1916600117855583156107a257845460ff60401b1916600160401b1785555b6107ab33610d41565b6107b3610d52565b600080546001600160a01b0319167f00000000000000000000000000000000000000000000000000000000000000006001600160a01b0316179055831561083457845460ff60401b19168555604051600181527fc7f505b2f371ae2175ee4913f4499e1f2633a7b5936321eed1cdaeb6115181d29060200160405180910390a15b5050505050565b6000807f9016d09d72d40fdae2fd8ceac6b6234c7706214fd39c1cd1e609a0528c1993005b546001600160a01b031692915050565b6001600160a01b0381166000908152600260209081526040918290208054835181840281018401909452808452606093928301828280156108d057602002820191906000526020600020905b8154815260200190600101908083116108bc575b50505050509050919050565b6000807f237e158222e3e6968b72b9db0d8043aacf074ad9f650f0d1606b4d82ee432c00610860565b61090d610cd3565b7f237e158222e3e6968b72b9db0d8043aacf074ad9f650f0d1606b4d82ee432c0080546001600160a01b0319166001600160a01b038316908117825561095161083b565b6001600160a01b03167f38d16b8cac22d99fc7c124b9cd0de2d3fa1faef420bfe791d8c362d765e2270060405160405180910390a35050565b610992610c87565b6000818152600160205260409020600281015460ff166109c557604051630c0144e560e11b815260040160405180910390fd5b80546001600160a01b031633146109ef57604051631022318760e21b815260040160405180910390fd5b6312cc03008160030154610a0391906110e3565b421015610a23576040516387c0f2d560e01b815260040160405180910390fd5b6000805460408051632142170760e11b81523060048201523360248201526044810186905290516001600160a01b03909216926342842e0e9260648084019382900301818387803b158015610a7757600080fd5b505af1158015610a8b573d6000803e3d6000fd5b5050505060028101805460ff19169055610aa53383610d62565b604051829033907ff15274e1fe5043a963d7d1dfdb31b4c69407f0c6f0fc77ddf03f605961cfe28490600090a35061065760016000805160206112a683398151915255565b600080610af5610c87565b6000858152600160205260409020600281015460ff16610b2857604051630c0144e560e11b815260040160405180910390fd5b80546001600160a01b03163314610b5257604051631022318760e21b815260040160405180910390fd5b600080546040805160808101825289815233602082019081526001600160801b0382840181815260608401828152855163fc6f786560e01b81529451600486015292516001600160a01b0390811660248601529051821660448501529151166064830152825193169363fc6f7865936084808401949391929183900301908290875af1158015610be6573d6000803e3d6000fd5b505050506040513d601f19601f82011682018060405250810190610c0a919061123c565b90935091508533604080516001600160a01b0389811682528881166020830152918101879052606081018690529116907fde09a78dedffe5bc535f06b6669322669d2d4d41f682382c07cb550d464646929060800160405180910390a350610c7f60016000805160206112a683398151915255565b935093915050565b6000805160206112a6833981519152805460011901610cb957604051633ee5aeb560e01b815260040160405180910390fd5b60029055565b60016000805160206112a683398151915255565b33610cdc61083b565b6001600160a01b03161461069d5760405163118cdaa760e01b81523360048201526024016106d7565b7f237e158222e3e6968b72b9db0d8043aacf074ad9f650f0d1606b4d82ee432c0080546001600160a01b0319168155610d3d82610e36565b5050565b610d49610ea7565b61065781610ef0565b610d5a610ea7565b61069d610f22565b6001600160a01b0382166000908152600260205260408120905b8154811015610e305782828281548110610d9857610d98611260565b906000526020600020015403610e1e5781548290610db8906001906110fc565b81548110610dc857610dc8611260565b9060005260206000200154828281548110610de557610de5611260565b906000526020600020018190555081805480610e0357610e03611276565b60019003818190600052602060002001600090559055610e30565b80610e288161128c565b915050610d7c565b50505050565b7f9016d09d72d40fdae2fd8ceac6b6234c7706214fd39c1cd1e609a0528c19930080546001600160a01b031981166001600160a01b03848116918217845560405192169182907f8be0079c531659141344cd1fd0a4f28419497f9722a3daafe3b4186f6b6457e090600090a3505050565b7ff0c57e16840df040f15088dc2f81fe391c3923bec73e23a9662efc9c229c6a0054600160401b900460ff1661069d57604051631afcd79f60e31b815260040160405180910390fd5b610ef8610ea7565b6001600160a01b0381166106e057604051631e4fbdf760e01b8152600060048201526024016106d7565b610cbf610ea7565b6001600160a01b038116811461065757600080fd5b600080600080600060808688031215610f5757600080fd5b8535610f6281610f2a565b94506020860135610f7281610f2a565b935060408601359250606086013567ffffffffffffffff80821115610f9657600080fd5b818801915088601f830112610faa57600080fd5b813581811115610fb957600080fd5b896020828501011115610fcb57600080fd5b9699959850939650602001949392505050565b600060208284031215610ff057600080fd5b5035919050565b6000806040838503121561100a57600080fd5b823561101581610f2a565b946020939093013593505050565b60006020828403121561103557600080fd5b813561104081610f2a565b9392505050565b6020808252825182820181905260009190848201906040850190845b8181101561107f57835183529284019291840191600101611063565b50909695505050505050565b6000806000606084860312156110a057600080fd5b8335925060208401356110b281610f2a565b915060408401356110c281610f2a565b809150509250925092565b634e487b7160e01b600052601160045260246000fd5b808201808211156110f6576110f66110cd565b92915050565b818103818111156110f6576110f66110cd565b805161111a81610f2a565b919050565b805162ffffff8116811461111a57600080fd5b8051600281900b811461111a57600080fd5b80516001600160801b038116811461111a57600080fd5b6000806000806000806000806000806000806101808d8f03121561117e57600080fd5b8c516bffffffffffffffffffffffff8116811461119a57600080fd5b9b506111a860208e0161110f565b9a506111b660408e0161110f565b99506111c460608e0161110f565b98506111d260808e0161111f565b97506111e060a08e01611132565b96506111ee60c08e01611132565b95506111fc60e08e01611144565b94506101008d015193506101208d0151925061121b6101408e01611144565b915061122a6101608e01611144565b90509295989b509295989b509295989b565b6000806040838503121561124f57600080fd5b505080516020909101519092909150565b634e487b7160e01b600052603260045260246000fd5b634e487b7160e01b600052603160045260246000fd5b60006001820161129e5761129e6110cd565b506001019056fe9b779b17422d0df92223018b32b4d1fa46e071723d6817e2486d003becc55f00a2646970667358221220f4e5d8b73e7f41b421a9c028756823fc07f69371ce6902909a2b4bd45e4eb63a64736f6c63430008140033",
  "devdoc": {
    "details": "Implements IERC721Receiver to accept NFT transfers",
    "errors": {
      "InvalidInitialization()": [
        {
          "details": "The contract is already initialized."
        }
      ],
      "NotInitializing()": [
        {
          "details": "The contract is not initializing."
        }
      ],
      "OwnableInvalidOwner(address)": [
        {
          "details": "The owner is not a valid owner account. (eg. `address(0)`)"
        }
      ],
      "OwnableUnauthorizedAccount(address)": [
        {
          "details": "The caller account is not authorized to perform an operation."
        }
      ],
      "ReentrancyGuardReentrantCall()": [
        {
          "details": "Unauthorized reentrant call."
        }
      ]
    },
    "events": {
      "FeesClaimed(address,uint256,address,address,uint256,uint256)": {
        "params": {
          "amount0": "Amount of token0 fees claimed",
          "amount1": "Amount of token1 fees claimed",
          "owner": "Address claiming the fees",
          "token0": "Address of token0 in the pair",
          "token1": "Address of token1 in the pair",
          "tokenId": "NFT position ID"
        }
      },
      "Initialized(uint64)": {
        "details": "Triggered when the contract has been initialized or reinitialized."
      },
      "NFTLocked(address,uint256)": {
        "params": {
          "owner": "Address of the NFT owner",
          "tokenId": "ID of the locked NFT"
        }
      },
      "NFTUnlocked(address,uint256)": {
        "params": {
          "owner": "Address of the NFT owner",
          "tokenId": "ID of the unlocked NFT"
        }
      }
    },
    "kind": "dev",
    "methods": {
      "acceptOwnership()": {
        "details": "The new owner accepts the ownership transfer."
      },
      "checkAvailableFees(uint256)": {
        "params": {
          "tokenId": "The NFT position ID"
        },
        "returns": {
          "amount0": "Available fees for token0",
          "amount1": "Available fees for token1"
        }
      },
      "claimFees(uint256,address,address)": {
        "params": {
          "token0": "The address of token0 in the pair",
          "token1": "The address of token1 in the pair",
          "tokenId": "The NFT position ID"
        }
      },
      "getNFTsByOwner(address)": {
        "params": {
          "owner": "The address to query"
        },
        "returns": {
          "_0": "Array of NFT IDs owned by the address"
        }
      },
      "getRemainingLockTime(uint256)": {
        "params": {
          "tokenId": "The NFT ID to check"
        },
        "returns": {
          "_0": "Remaining time in seconds, 0 if lock period has ended"
        }
      },
      "isNFTLocked(uint256)": {
        "params": {
          "tokenId": "The NFT ID to check"
        },
        "returns": {
          "_0": "true if NFT is locked"
        }
      },
      "lockNFT(uint256)": {
        "params": {
          "tokenId": "The ID of the NFT to lock"
        }
      },
      "owner()": {
        "details": "Returns the address of the current owner."
      },
      "pendingOwner()": {
        "details": "Returns the address of the pending owner."
      },
      "renounceOwnership()": {
        "details": "Leaves the contract without owner. It will not be possible to call `onlyOwner` functions. Can only be called by the current owner. NOTE: Renouncing ownership will leave the contract without an owner, thereby disabling any functionality that is only available to the owner."
      },
      "transferOwnership(address)": {
        "details": "Starts the ownership transfer of the contract to a new account. Replaces the pending transfer if there is one. Can only be called by the current owner. Setting `newOwner` to the zero address is allowed; this can be used to cancel an initiated ownership transfer."
      },
      "unlockNFT(uint256)": {
        "params": {
          "tokenId": "The ID of the NFT to unlock"
        }
      }
    },
    "title": "Lock",
    "version": 1
  },
  "userdoc": {
    "errors": {
      "LockPeriodNotEnded()": [
        {
          "notice": "Thrown when lock period has not ended"
        }
      ],
      "NFTAlreadyLocked()": [
        {
          "notice": "Thrown when NFT is already locked"
        }
      ],
      "NFTNotLocked()": [
        {
          "notice": "Thrown when NFT is not locked"
        }
      ],
      "NotNFTOwner()": [
        {
          "notice": "Thrown when caller is not the NFT owner"
        }
      ]
    },
    "events": {
      "FeesClaimed(address,uint256,address,address,uint256,uint256)": {
        "notice": "Emitted when fees are claimed"
      },
      "NFTLocked(address,uint256)": {
        "notice": "Emitted when an NFT is locked"
      },
      "NFTUnlocked(address,uint256)": {
        "notice": "Emitted when an NFT is unlocked"
      }
    },
    "kind": "user",
    "methods": {
      "checkAvailableFees(uint256)": {
        "notice": "Check available fees for a locked NFT position"
      },
      "claimFees(uint256,address,address)": {
        "notice": "Claim accumulated fees for a locked NFT position"
      },
      "getNFTsByOwner(address)": {
        "notice": "Get all NFTs owned by an address"
      },
      "getRemainingLockTime(uint256)": {
        "notice": "Get remaining lock time for an NFT"
      },
      "initialize()": {
        "notice": "Initialize the lock contract"
      },
      "isNFTLocked(uint256)": {
        "notice": "Check if an NFT is currently locked"
      },
      "lockNFT(uint256)": {
        "notice": "Lock a Uniswap V3 LP NFT"
      },
      "onERC721Received(address,address,uint256,bytes)": {
        "notice": "Implements IERC721Receiver"
      },
      "unlockNFT(uint256)": {
        "notice": "Unlock an NFT after the lock period"
      }
    },
    "notice": "Contract for locking Uniswap V3 LP NFTs and managing fee claims",
    "version": 1
  },
  "storageLayout": {
    "storage": [
      {
        "astId": 10247,
        "contract": "contracts/Lock.sol:Lock",
        "label": "positionManager",
        "offset": 0,
        "slot": "0",
        "type": "t_contract(INonfungiblePositionManager)11486"
      },
      {
        "astId": 10252,
        "contract": "contracts/Lock.sol:Lock",
        "label": "lockedNFTs",
        "offset": 0,
        "slot": "1",
        "type": "t_mapping(t_uint256,t_struct(LockedNFT)10244_storage)"
      },
      {
        "astId": 10257,
        "contract": "contracts/Lock.sol:Lock",
        "label": "ownerNFTs",
        "offset": 0,
        "slot": "2",
        "type": "t_mapping(t_address,t_array(t_uint256)dyn_storage)"
      }
    ],
    "types": {
      "t_address": {
        "encoding": "inplace",
        "label": "address",
        "numberOfBytes": "20"
      },
      "t_array(t_uint256)dyn_storage": {
        "base": "t_uint256",
        "encoding": "dynamic_array",
        "label": "uint256[]",
        "numberOfBytes": "32"
      },
      "t_bool": {
        "encoding": "inplace",
        "label": "bool",
        "numberOfBytes": "1"
      },
      "t_contract(INonfungiblePositionManager)11486": {
        "encoding": "inplace",
        "label": "contract INonfungiblePositionManager",
        "numberOfBytes": "20"
      },
      "t_mapping(t_address,t_array(t_uint256)dyn_storage)": {
        "encoding": "mapping",
        "key": "t_address",
        "label": "mapping(address => uint256[])",
        "numberOfBytes": "32",
        "value": "t_array(t_uint256)dyn_storage"
      },
      "t_mapping(t_uint256,t_struct(LockedNFT)10244_storage)": {
        "encoding": "mapping",
        "key": "t_uint256",
        "label": "mapping(uint256 => struct Lock.LockedNFT)",
        "numberOfBytes": "32",
        "value": "t_struct(LockedNFT)10244_storage"
      },
      "t_struct(LockedNFT)10244_storage": {
        "encoding": "inplace",
        "label": "struct Lock.LockedNFT",
        "members": [
          {
            "astId": 10237,
            "contract": "contracts/Lock.sol:Lock",
            "label": "owner",
            "offset": 0,
            "slot": "0",
            "type": "t_address"
          },
          {
            "astId": 10239,
            "contract": "contracts/Lock.sol:Lock",
            "label": "tokenId",
            "offset": 0,
            "slot": "1",
            "type": "t_uint256"
          },
          {
            "astId": 10241,
            "contract": "contracts/Lock.sol:Lock",
            "label": "isLocked",
            "offset": 0,
            "slot": "2",
            "type": "t_bool"
          },
          {
            "astId": 10243,
            "contract": "contracts/Lock.sol:Lock",
            "label": "lockedAt",
            "offset": 0,
            "slot": "3",
            "type": "t_uint256"
          }
        ],
        "numberOfBytes": "128"
      },
      "t_uint256": {
        "encoding": "inplace",
        "label": "uint256",
        "numberOfBytes": "32"
      }
    }
  }
}