{
  "address": "0xdf0FDb7fFeD3aF9Dd19612DB0323475D8681c21E",
  "abi": [
    {
      "inputs": [],
      "name": "AlreadyFinalized",
      "type": "error"
    },
    {
      "inputs": [],
      "name": "BondingTargetReached",
      "type": "error"
    },
    {
      "inputs": [],
      "name": "CannotFinalizeYet",
      "type": "error"
    },
    {
      "inputs": [],
      "name": "ContributionTooLow",
      "type": "error"
    },
    {
      "inputs": [],
      "name": "FailedCall",
      "type": "error"
    },
    {
      "inputs": [],
      "name": "InitializationFailed",
      "type": "error"
    },
    {
      "inputs": [
        {
          "internalType": "uint256",
          "name": "balance",
          "type": "uint256"
        },
        {
          "internalType": "uint256",
          "name": "needed",
          "type": "uint256"
        }
      ],
      "name": "InsufficientBalance",
      "type": "error"
    },
    {
      "inputs": [],
      "name": "InsufficientETH",
      "type": "error"
    },
    {
      "inputs": [],
      "name": "InsufficientTokens",
      "type": "error"
    },
    {
      "inputs": [],
      "name": "InvalidInitialization",
      "type": "error"
    },
    {
      "inputs": [],
      "name": "InvalidPhase",
      "type": "error"
    },
    {
      "inputs": [],
      "name": "NoFeesToWithdraw",
      "type": "error"
    },
    {
      "inputs": [],
      "name": "NotInitializing",
      "type": "error"
    },
    {
      "inputs": [
        {
          "internalType": "address",
          "name": "owner",
          "type": "address"
        }
      ],
      "name": "OwnableInvalidOwner",
      "type": "error"
    },
    {
      "inputs": [
        {
          "internalType": "address",
          "name": "account",
          "type": "address"
        }
      ],
      "name": "OwnableUnauthorizedAccount",
      "type": "error"
    },
    {
      "inputs": [],
      "name": "PreBondingTargetReached",
      "type": "error"
    },
    {
      "inputs": [],
      "name": "ReentrancyGuardReentrantCall",
      "type": "error"
    },
    {
      "inputs": [
        {
          "internalType": "address",
          "name": "token",
          "type": "address"
        }
      ],
      "name": "SafeERC20FailedOperation",
      "type": "error"
    },
    {
      "inputs": [],
      "name": "SlippageExceeded",
      "type": "error"
    },
    {
      "inputs": [],
      "name": "TokensLocked",
      "type": "error"
    },
    {
      "inputs": [],
      "name": "TokensNotLocked",
      "type": "error"
    },
    {
      "inputs": [],
      "name": "TransferFailed",
      "type": "error"
    },
    {
      "inputs": [],
      "name": "ZeroAddress",
      "type": "error"
    },
    {
      "anonymous": false,
      "inputs": [
        {
          "indexed": true,
          "internalType": "address",
          "name": "uniswapPool",
          "type": "address"
        },
        {
          "indexed": true,
          "internalType": "uint256",
          "name": "lpTokenId",
          "type": "uint256"
        }
      ],
      "name": "CurveFinalized",
      "type": "event"
    },
    {
      "anonymous": false,
      "inputs": [
        {
          "indexed": false,
          "internalType": "uint256",
          "name": "amount",
          "type": "uint256"
        }
      ],
      "name": "FeesWithdrawn",
      "type": "event"
    },
    {
      "anonymous": false,
      "inputs": [
        {
          "indexed": false,
          "internalType": "uint64",
          "name": "version",
          "type": "uint64"
        }
      ],
      "name": "Initialized",
      "type": "event"
    },
    {
      "anonymous": false,
      "inputs": [
        {
          "indexed": true,
          "internalType": "address",
          "name": "previousOwner",
          "type": "address"
        },
        {
          "indexed": true,
          "internalType": "address",
          "name": "newOwner",
          "type": "address"
        }
      ],
      "name": "OwnershipTransferStarted",
      "type": "event"
    },
    {
      "anonymous": false,
      "inputs": [
        {
          "indexed": true,
          "internalType": "address",
          "name": "previousOwner",
          "type": "address"
        },
        {
          "indexed": true,
          "internalType": "address",
          "name": "newOwner",
          "type": "address"
        }
      ],
      "name": "OwnershipTransferred",
      "type": "event"
    },
    {
      "anonymous": false,
      "inputs": [
        {
          "indexed": false,
          "internalType": "uint256",
          "name": "totalContributed",
          "type": "uint256"
        },
        {
          "indexed": false,
          "internalType": "uint256",
          "name": "totalTokens",
          "type": "uint256"
        }
      ],
      "name": "PreBondingCompleted",
      "type": "event"
    },
    {
      "anonymous": false,
      "inputs": [
        {
          "indexed": true,
          "internalType": "address",
          "name": "contributor",
          "type": "address"
        },
        {
          "indexed": false,
          "internalType": "uint256",
          "name": "amount",
          "type": "uint256"
        },
        {
          "indexed": false,
          "internalType": "uint256",
          "name": "tokenAmount",
          "type": "uint256"
        }
      ],
      "name": "PreBondingContribution",
      "type": "event"
    },
    {
      "anonymous": false,
      "inputs": [
        {
          "indexed": true,
          "internalType": "address",
          "name": "buyer",
          "type": "address"
        },
        {
          "indexed": false,
          "internalType": "uint256",
          "name": "ethAmount",
          "type": "uint256"
        },
        {
          "indexed": false,
          "internalType": "uint256",
          "name": "tokenAmount",
          "type": "uint256"
        }
      ],
      "name": "TokensPurchased",
      "type": "event"
    },
    {
      "anonymous": false,
      "inputs": [
        {
          "indexed": true,
          "internalType": "address",
          "name": "seller",
          "type": "address"
        },
        {
          "indexed": false,
          "internalType": "uint256",
          "name": "tokenAmount",
          "type": "uint256"
        },
        {
          "indexed": false,
          "internalType": "uint256",
          "name": "ethAmount",
          "type": "uint256"
        },
        {
          "indexed": false,
          "internalType": "uint256",
          "name": "fee",
          "type": "uint256"
        }
      ],
      "name": "TokensSold",
      "type": "event"
    },
    {
      "anonymous": false,
      "inputs": [
        {
          "indexed": true,
          "internalType": "address",
          "name": "account",
          "type": "address"
        }
      ],
      "name": "TokensUnlocked",
      "type": "event"
    },
    {
      "inputs": [],
      "name": "acceptOwnership",
      "outputs": [],
      "stateMutability": "nonpayable",
      "type": "function"
    },
    {
      "inputs": [],
      "name": "accumulatedFees",
      "outputs": [
        {
          "internalType": "uint256",
          "name": "",
          "type": "uint256"
        }
      ],
      "stateMutability": "view",
      "type": "function"
    },
    {
      "inputs": [
        {
          "internalType": "uint256",
          "name": "minTokens",
          "type": "uint256"
        }
      ],
      "name": "buyTokens",
      "outputs": [
        {
          "internalType": "uint256",
          "name": "tokensToReceive",
          "type": "uint256"
        }
      ],
      "stateMutability": "payable",
      "type": "function"
    },
    {
      "inputs": [],
      "name": "contributePreBonding",
      "outputs": [],
      "stateMutability": "payable",
      "type": "function"
    },
    {
      "inputs": [
        {
          "internalType": "address",
          "name": "",
          "type": "address"
        }
      ],
      "name": "contributions",
      "outputs": [
        {
          "internalType": "uint256",
          "name": "",
          "type": "uint256"
        }
      ],
      "stateMutability": "view",
      "type": "function"
    },
    {
      "inputs": [],
      "name": "currentPhase",
      "outputs": [
        {
          "internalType": "enum BondingCurve.Phase",
          "name": "",
          "type": "uint8"
        }
      ],
      "stateMutability": "view",
      "type": "function"
    },
    {
      "inputs": [],
      "name": "ethReserve",
      "outputs": [
        {
          "internalType": "uint256",
          "name": "",
          "type": "uint256"
        }
      ],
      "stateMutability": "view",
      "type": "function"
    },
    {
      "inputs": [],
      "name": "finalizeCurve",
      "outputs": [],
      "stateMutability": "nonpayable",
      "type": "function"
    },
    {
      "inputs": [],
      "name": "getBondingCurveSettings",
      "outputs": [
        {
          "components": [
            {
              "internalType": "uint256",
              "name": "virtualEth",
              "type": "uint256"
            },
            {
              "internalType": "uint256",
              "name": "preBondingTarget",
              "type": "uint256"
            },
            {
              "internalType": "uint256",
              "name": "bondingTarget",
              "type": "uint256"
            },
            {
              "internalType": "uint256",
              "name": "minContribution",
              "type": "uint256"
            },
            {
              "internalType": "uint24",
              "name": "poolFee",
              "type": "uint24"
            },
            {
              "internalType": "uint24",
              "name": "sellFee",
              "type": "uint24"
            },
            {
              "internalType": "address",
              "name": "uniswapV3Factory",
              "type": "address"
            },
            {
              "internalType": "address",
              "name": "positionManager",
              "type": "address"
            },
            {
              "internalType": "address",
              "name": "weth",
              "type": "address"
            },
            {
              "internalType": "address",
              "name": "feeTo",
              "type": "address"
            }
          ],
          "internalType": "struct IFactory.BondingCurveSettings",
          "name": "",
          "type": "tuple"
        }
      ],
      "stateMutability": "view",
      "type": "function"
    },
    {
      "inputs": [
        {
          "internalType": "address",
          "name": "token_",
          "type": "address"
        },
        {
          "internalType": "address",
          "name": "lock_",
          "type": "address"
        },
        {
          "internalType": "address",
          "name": "owner_",
          "type": "address"
        },
        {
          "components": [
            {
              "internalType": "uint256",
              "name": "virtualEth",
              "type": "uint256"
            },
            {
              "internalType": "uint256",
              "name": "preBondingTarget",
              "type": "uint256"
            },
            {
              "internalType": "uint256",
              "name": "bondingTarget",
              "type": "uint256"
            },
            {
              "internalType": "uint256",
              "name": "minContribution",
              "type": "uint256"
            },
            {
              "internalType": "uint24",
              "name": "poolFee",
              "type": "uint24"
            },
            {
              "internalType": "uint24",
              "name": "sellFee",
              "type": "uint24"
            },
            {
              "internalType": "address",
              "name": "uniswapV3Factory",
              "type": "address"
            },
            {
              "internalType": "address",
              "name": "positionManager",
              "type": "address"
            },
            {
              "internalType": "address",
              "name": "weth",
              "type": "address"
            },
            {
              "internalType": "address",
              "name": "feeTo",
              "type": "address"
            }
          ],
          "internalType": "struct IFactory.BondingCurveSettings",
          "name": "settings_",
          "type": "tuple"
        }
      ],
      "name": "initialize",
      "outputs": [],
      "stateMutability": "nonpayable",
      "type": "function"
    },
    {
      "inputs": [],
      "name": "isFinalized",
      "outputs": [
        {
          "internalType": "bool",
          "name": "",
          "type": "bool"
        }
      ],
      "stateMutability": "view",
      "type": "function"
    },
    {
      "inputs": [],
      "name": "lockContract",
      "outputs": [
        {
          "internalType": "address",
          "name": "",
          "type": "address"
        }
      ],
      "stateMutability": "view",
      "type": "function"
    },
    {
      "inputs": [],
      "name": "lpTokenId",
      "outputs": [
        {
          "internalType": "uint256",
          "name": "",
          "type": "uint256"
        }
      ],
      "stateMutability": "view",
      "type": "function"
    },
    {
      "inputs": [
        {
          "internalType": "address",
          "name": "",
          "type": "address"
        },
        {
          "internalType": "address",
          "name": "",
          "type": "address"
        },
        {
          "internalType": "uint256",
          "name": "",
          "type": "uint256"
        },
        {
          "internalType": "bytes",
          "name": "",
          "type": "bytes"
        }
      ],
      "name": "onERC721Received",
      "outputs": [
        {
          "internalType": "bytes4",
          "name": "",
          "type": "bytes4"
        }
      ],
      "stateMutability": "pure",
      "type": "function"
    },
    {
      "inputs": [],
      "name": "owner",
      "outputs": [
        {
          "internalType": "address",
          "name": "",
          "type": "address"
        }
      ],
      "stateMutability": "view",
      "type": "function"
    },
    {
      "inputs": [],
      "name": "pendingOwner",
      "outputs": [
        {
          "internalType": "address",
          "name": "",
          "type": "address"
        }
      ],
      "stateMutability": "view",
      "type": "function"
    },
    {
      "inputs": [],
      "name": "preBondingTokens",
      "outputs": [
        {
          "internalType": "uint256",
          "name": "",
          "type": "uint256"
        }
      ],
      "stateMutability": "view",
      "type": "function"
    },
    {
      "inputs": [],
      "name": "renounceOwnership",
      "outputs": [],
      "stateMutability": "nonpayable",
      "type": "function"
    },
    {
      "inputs": [
        {
          "internalType": "uint256",
          "name": "tokenAmount",
          "type": "uint256"
        },
        {
          "internalType": "uint256",
          "name": "minETH",
          "type": "uint256"
        }
      ],
      "name": "sellTokens",
      "outputs": [
        {
          "internalType": "uint256",
          "name": "ethToReceive",
          "type": "uint256"
        },
        {
          "internalType": "uint256",
          "name": "fee",
          "type": "uint256"
        }
      ],
      "stateMutability": "nonpayable",
      "type": "function"
    },
    {
      "inputs": [],
      "name": "token",
      "outputs": [
        {
          "internalType": "contract IToken",
          "name": "",
          "type": "address"
        }
      ],
      "stateMutability": "view",
      "type": "function"
    },
    {
      "inputs": [
        {
          "internalType": "address",
          "name": "",
          "type": "address"
        }
      ],
      "name": "tokenAllocations",
      "outputs": [
        {
          "internalType": "uint256",
          "name": "",
          "type": "uint256"
        }
      ],
      "stateMutability": "view",
      "type": "function"
    },
    {
      "inputs": [
        {
          "internalType": "address",
          "name": "",
          "type": "address"
        }
      ],
      "name": "tokenLocks",
      "outputs": [
        {
          "internalType": "bool",
          "name": "",
          "type": "bool"
        }
      ],
      "stateMutability": "view",
      "type": "function"
    },
    {
      "inputs": [],
      "name": "tokenReserve",
      "outputs": [
        {
          "internalType": "uint256",
          "name": "",
          "type": "uint256"
        }
      ],
      "stateMutability": "view",
      "type": "function"
    },
    {
      "inputs": [],
      "name": "totalETHCollected",
      "outputs": [
        {
          "internalType": "uint256",
          "name": "",
          "type": "uint256"
        }
      ],
      "stateMutability": "view",
      "type": "function"
    },
    {
      "inputs": [],
      "name": "totalPreBondingContributions",
      "outputs": [
        {
          "internalType": "uint256",
          "name": "",
          "type": "uint256"
        }
      ],
      "stateMutability": "view",
      "type": "function"
    },
    {
      "inputs": [
        {
          "internalType": "address",
          "name": "newOwner",
          "type": "address"
        }
      ],
      "name": "transferOwnership",
      "outputs": [],
      "stateMutability": "nonpayable",
      "type": "function"
    },
    {
      "inputs": [],
      "name": "uniswapPool",
      "outputs": [
        {
          "internalType": "address",
          "name": "",
          "type": "address"
        }
      ],
      "stateMutability": "view",
      "type": "function"
    },
    {
      "inputs": [
        {
          "internalType": "address",
          "name": "recipient",
          "type": "address"
        }
      ],
      "name": "withdrawTokenAllocation",
      "outputs": [],
      "stateMutability": "nonpayable",
      "type": "function"
    },
    {
      "stateMutability": "payable",
      "type": "receive"
    }
  ],
  "transactionHash": "0x48ce5f9e99b91886b423e6c4bae90af116fcf81863457f863049d400e0f39fb7",
  "args": [],
  "numDeployments": 1,
  "solcInputHash": "ad73c1b0062c99e6acb7662834b7b9bd",
  "bytecode": "0x608060405234801561001057600080fd5b506123bb806100206000396000f3fe6080604052600436106101bb5760003560e01c8063715018a6116100ec578063cbcb31711161008a578063ed9772b611610064578063ed9772b6146105a0578063f2fde38b146105d5578063f4a49936146105f5578063fc0c546a146105fd57600080fd5b8063cbcb31711461055f578063d62ccb3f14610575578063e30c39781461058b57600080fd5b80638d4e4083116100c65780638d4e40831461041f5780638da5cb5b14610439578063a29056681461044e578063bdd3d8251461053f57600080fd5b8063715018a6146103bd578063753868e3146103d257806379ba50971461040a57600080fd5b80632cd67215116101595780634efef770116101335780634efef7701461033257806356b63df714610352578063587f5ed7146103925780636af55124146103a857600080fd5b80632cd67215146102dc5780633610724e146102f257806342e94c901461030557600080fd5b80630b6d621c116101955780630b6d621c1461023e5780630f58fd0f1461026b578063150b7a021461028157806328339479146102c657600080fd5b80630242d712146101c7578063050d388c146101f0578063055ad42e1461021257600080fd5b366101c257005b600080fd5b3480156101d357600080fd5b506101dd600b5481565b6040519081526020015b60405180910390f35b3480156101fc57600080fd5b5061021061020b366004611d9a565b61061d565b005b34801561021e57600080fd5b50600c5461023190610100900460ff1681565b6040516101e79190611e16565b34801561024a57600080fd5b506101dd610259366004611e3e565b60156020526000908152604090205481565b34801561027757600080fd5b506101dd60115481565b34801561028d57600080fd5b506102ad61029c366004611e62565b630a85bd0160e11b95945050505050565b6040516001600160e01b031990911681526020016101e7565b3480156102d257600080fd5b506101dd60105481565b3480156102e857600080fd5b506101dd600d5481565b6101dd610300366004611f01565b6107bb565b34801561031157600080fd5b506101dd610320366004611e3e565b60136020526000908152604090205481565b34801561033e57600080fd5b5061021061034d366004611e3e565b610971565b34801561035e57600080fd5b5061038261036d366004611e3e565b60146020526000908152604090205460ff1681565b60405190151581526020016101e7565b34801561039e57600080fd5b506101dd60125481565b3480156103b457600080fd5b50610210610aae565b3480156103c957600080fd5b50610210610d5a565b3480156103de57600080fd5b506009546103f2906001600160a01b031681565b6040516001600160a01b0390911681526020016101e7565b34801561041657600080fd5b50610210610d6c565b34801561042b57600080fd5b50600c546103829060ff1681565b34801561044557600080fd5b506103f2610db6565b34801561045a57600080fd5b506105326040805161014081018252600080825260208201819052918101829052606081018290526080810182905260a0810182905260c0810182905260e0810182905261010081018290526101208101919091525060408051610140810182526000548152600154602082015260025491810191909152600354606082015260045462ffffff8082166080840152630100000082041660a08301526001600160a01b036601000000000000909104811660c0830152600554811660e083015260065481166101008301526007541661012082015290565b6040516101e79190611f1a565b34801561054b57600080fd5b50600a546103f2906001600160a01b031681565b34801561056b57600080fd5b506101dd600f5481565b34801561058157600080fd5b506101dd600e5481565b34801561059757600080fd5b506103f2610deb565b3480156105ac57600080fd5b506105c06105bb366004611fd5565b610e14565b604080519283526020830191909152016101e7565b3480156105e157600080fd5b506102106105f0366004611e3e565b610ffe565b610210611083565b34801561060957600080fd5b506008546103f2906001600160a01b031681565b6000610627611340565b805490915060ff600160401b820416159067ffffffffffffffff1660008115801561064f5750825b905060008267ffffffffffffffff16600114801561066c5750303b155b90508115801561067a575080155b156106985760405163f92ee8a960e01b815260040160405180910390fd5b845467ffffffffffffffff1916600117855583156106c257845460ff60401b1916600160401b1785555b6001600160a01b03891615806106df57506001600160a01b038816155b806106f157506001600160a01b038716155b1561070f5760405163d92e233d60e01b815260040160405180910390fd5b6107188761136b565b61072061137c565b600880546001600160a01b03808c166001600160a01b03199283161790925560098054928b169290911691909117905585600061075d8282612039565b5050600c805461ff001916905583156107b057845460ff60401b19168555604051600181527fc7f505b2f371ae2175ee4913f4499e1f2633a7b5936321eed1cdaeb6115181d29060200160405180910390a15b505050505050505050565b60006107c561138c565b600180600c54610100900460ff1660038111156107e4576107e4611e00565b146108025760405163268dbf6760e21b815260040160405180910390fd5b60035434101561082557604051636c7591b560e11b815260040160405180910390fd5b600254601154106108495760405163031d383360e11b815260040160405180910390fd5b610858600e54600f54346113c4565b91508282101561087b57604051638199f5f360e01b815260040160405180910390fd5b81600f54101561089e576040516378dbf0af60e11b815260040160405180910390fd5b34600e60008282546108b09190612150565b9250508190555081600f60008282546108c99190612163565b9250508190555034601160008282546108e29190612150565b90915550506008546108fe906001600160a01b031633846113f5565b604080513481526020810184905233917f8fafebcaf9d154343dad25669bfa277f4fbacd7ac6b0c4fed522580e040a0f33910160405180910390a26002546011541061095457600c805461ff0019166102001790555b5061096c600160008051602061236683398151915255565b919050565b61097961138c565b600c5460ff1661099c5760405163ddf14e6b60e01b815260040160405180910390fd5b6001600160a01b0381166109c35760405163d92e233d60e01b815260040160405180910390fd5b3360009081526014602052604090205460ff166109f3576040516314b28e4760e21b815260040160405180910390fd5b3360009081526015602052604081205490819003610a24576040516378dbf0af60e11b815260040160405180910390fd5b33600090815260156020908152604080832083905560149091529020805460ff19169055600854610a5f906001600160a01b031683836113f5565b6040516001600160a01b038316907fcf96a7404357442bbc147c389fc2942cb6eedcaf1aad90bb8eb4b67ce43d4fb290600090a250610aab600160008051602061236683398151915255565b50565b610ab661138c565b6002546011541015610adb5760405163ddf14e6b60e01b815260040160405180910390fd5b600c5460ff1615610aff5760405163475a253560e01b815260040160405180910390fd5b6040805160c0810182526004546001600160a01b03660100000000000082048116835260085481166020840152600654169282019290925262ffffff9091166060820152600e546080820152600f5460a08201526000610b5e8261146d565b905060004790506000600e54600f5483610b789190612176565b610b8291906121a3565b600554600854919250610ba2916001600160a01b039081169116836115ae565b6040805160c0810182526005546001600160a01b03908116825260085481166020830152600654169181019190915260045462ffffff1660608201526080810183905260a081018290526000610bf78261163e565b60055460095460405163095ea7b360e01b81526001600160a01b03918216600482015260248101849052929350169063095ea7b390604401600060405180830381600087803b158015610c4957600080fd5b505af1158015610c5d573d6000803e3d6000fd5b50506009546001600160a01b03169150638a26f447905082610c7d610db6565b6040516001600160e01b031960e085901b16815260048101929092526001600160a01b03166024820152604401600060405180830381600087803b158015610cc457600080fd5b505af1158015610cd8573d6000803e3d6000fd5b5050600a80546001600160a01b0319166001600160a01b038916908117909155600b849055600c805461ffff19166103011790556040518493509091507f1e75a30ff2c00ce5b7284539725ed60843e751d9d76c3334813a971e24955ebe90600090a3505050505050610d58600160008051602061236683398151915255565b565b610d6261183c565b610d58600061186e565b3380610d76610deb565b6001600160a01b031614610dad5760405163118cdaa760e01b81526001600160a01b03821660048201526024015b60405180910390fd5b610aab8161186e565b6000807f9016d09d72d40fdae2fd8ceac6b6234c7706214fd39c1cd1e609a0528c1993005b546001600160a01b031692915050565b6000807f237e158222e3e6968b72b9db0d8043aacf074ad9f650f0d1606b4d82ee432c00610ddb565b600080610e1f61138c565b6001600c54610100900460ff166003811115610e3d57610e3d611e00565b14158015610e6757506002600c54610100900460ff166003811115610e6457610e64611e00565b14155b15610e855760405163268dbf6760e21b815260040160405180910390fd5b83600003610ea6576040516378dbf0af60e11b815260040160405180910390fd5b600e54600f54600454610ec892919087906301000000900462ffffff166118aa565b909250905082821015610eee57604051638199f5f360e01b815260040160405180910390fd5b60008054600e54610eff9190612163565b9050610f0b8284612150565b811015610f2b57604051631a84bc4160e21b815260040160405180910390fd5b610f358284612150565b600e6000828254610f469190612163565b9250508190555084600f6000828254610f5f9190612150565b9091555050600854610f7c906001600160a01b031633308861190b565b610f863384611944565b600754610f9c906001600160a01b031683611944565b604080518681526020810185905290810183905233907f6db63bebf1e6540277744df32846ebdb98385b1a73f2d5de49b28348add63f509060600160405180910390a250610ff7600160008051602061236683398151915255565b9250929050565b61100661183c565b7f237e158222e3e6968b72b9db0d8043aacf074ad9f650f0d1606b4d82ee432c0080546001600160a01b0319166001600160a01b038316908117825561104a610db6565b6001600160a01b03167f38d16b8cac22d99fc7c124b9cd0de2d3fa1faef420bfe791d8c362d765e2270060405160405180910390a35050565b61108b61138c565b600080600c54610100900460ff1660038111156110aa576110aa611e00565b146110c85760405163268dbf6760e21b815260040160405180910390fd5b6003543410156110eb57604051636c7591b560e11b815260040160405180910390fd5b600034600d546110fb9190612150565b6001549091508111156111215760405163e044426960e01b815260040160405180910390fd5b600080546008546040516370a0823160e01b815230600482015261119a92916001600160a01b0316906370a0823190602401602060405180830381865afa158015611170573d6000803e3d6000fd5b505050506040513d601f19601f8201168201806040525081019061119491906121b7565b346113c4565b336000908152601360205260408120805492935034929091906111be908490612150565b909155505033600090815260156020526040812080548392906111e2908490612150565b9250508190555034600d60008282546111fb9190612150565b9250508190555080601060008282546112149190612150565b90915550503360008181526014602052604090819020805460ff19166001179055517fb2cba05ebc70927fff6cd92123d8daf9059d1de235ec0da7243bebca1270185c9061126e9034908590918252602082015260400190565b60405180910390a2600154600d541061132657600c805461ff001916610100179055600d546000546112a09190612150565b600e55600d546011556010546008546040516370a0823160e01b81523060048201526001600160a01b03909116906370a0823190602401602060405180830381865afa1580156112f4573d6000803e3d6000fd5b505050506040513d601f19601f8201168201806040525081019061131891906121b7565b6113229190612163565b600f555b505050610d58600160008051602061236683398151915255565b6000807ff0c57e16840df040f15088dc2f81fe391c3923bec73e23a9662efc9c229c6a005b92915050565b6113736119d4565b610aab816119f9565b6113846119d4565b610d58611a2b565b6000805160206123668339815191528054600119016113be57604051633ee5aeb560e01b815260040160405180910390fd5b60029055565b6000806113d18484612176565b905060006113df8487612150565b90506113eb81836121a3565b9695505050505050565b6040516001600160a01b0383811660248301526044820183905261145491859182169063a9059cbb906064015b604051602081830303815290604052915060e01b6020820180516001600160e01b038381831617835250505050611a33565b505050565b600160008051602061236683398151915255565b805160208201516040808401516060850151915163a167129560e01b81526001600160a01b039384166004820152908316602482015262ffffff90911660448201526000929182169063a1671295906064016020604051808303816000875af11580156114de573d6000803e3d6000fd5b505050506040513d601f19601f8201168201806040525081019061150291906121d0565b91506000611513600160601b611aa4565b61153e8560a00151600160601b876080015161152f9190612176565b61153991906121a3565b611aa4565b6115489190612176565b60405163f637731d60e01b81526001600160a01b0380831660048301529192509084169063f637731d90602401600060405180830381600087803b15801561158f57600080fd5b505af11580156115a3573d6000803e3d6000fd5b505050505050919050565b604051636eb1769f60e11b81523060048201526001600160a01b0383811660248301526000919085169063dd62ed3e90604401602060405180830381865afa1580156115fe573d6000803e3d6000fd5b505050506040513d601f19601f8201168201806040525081019061162291906121b7565b905061163884846116338585612150565b611bf8565b50505050565b600080603c61165181620d89e7196121ed565b61165b9190612227565b90506000603c61166e81620d89e86121ed565b6116789190612227565b9050600060648560a00151605a61168f9190612176565b61169991906121a3565b9050600060648660800151605a6116b09190612176565b6116ba91906121a3565b9050600086604001516001600160a01b031687602001516001600160a01b03161090506000604051806101600160405280836116fa578960400151611700565b89602001515b6001600160a01b031681526020018361171d578960200151611723565b89604001515b6001600160a01b03168152602001896060015162ffffff1681526020018760020b81526020018660020b815260200183611761578960800151611767565b8960a001515b81526020018361177b578960a00151611781565b89608001515b8152602001836117915784611793565b855b8152602001836117a357856117a5565b845b815230602082015242604091820152895160808b01519151634418b22b60e11b81529293506001600160a01b031691638831645691906117e990859060040161224e565b60806040518083038185885af1158015611807573d6000803e3d6000fd5b50505050506040513d601f19601f8201168201806040525081019061182c9190612312565b50919a9950505050505050505050565b33611845610db6565b6001600160a01b031614610d585760405163118cdaa760e01b8152336004820152602401610da4565b7f237e158222e3e6968b72b9db0d8043aacf074ad9f650f0d1606b4d82ee432c0080546001600160a01b03191681556118a682611c88565b5050565b600080806118b88786612176565b905060006118c68688612150565b90506118d281836121a3565b93508415611900576127106118e78686612176565b6118f191906121a3565b92506118fd8385612163565b93505b505094509492505050565b6040516001600160a01b0384811660248301528381166044830152606482018390526116389186918216906323b872dd90608401611422565b8047101561196e5760405163cf47918160e01b815247600482015260248101829052604401610da4565b600080836001600160a01b03168360405160006040518083038185875af1925050503d80600081146119bc576040519150601f19603f3d011682016040523d82523d6000602084013e6119c1565b606091505b5091509150816116385761163881611cf9565b6119dc611d21565b610d5857604051631afcd79f60e31b815260040160405180910390fd5b611a016119d4565b6001600160a01b038116610dad57604051631e4fbdf760e01b815260006004820152602401610da4565b6114596119d4565b600080602060008451602086016000885af180611a56576040513d6000823e3d81fd5b50506000513d91508115611a6e578060011415611a7b565b6001600160a01b0384163b155b1561163857604051635274afe760e01b81526001600160a01b0385166004820152602401610da4565b600060018211611ab2575090565b816001600160801b8210611acb5760809190911c9060401b5b600160401b8210611ae15760409190911c9060201b5b6401000000008210611af85760209190911c9060101b5b620100008210611b0d5760109190911c9060081b5b6101008210611b215760089190911c9060041b5b60108210611b345760049190911c9060021b5b60048210611b405760011b5b600302600190811c90818581611b5857611b5861218d565b048201901c90506001818581611b7057611b7061218d565b048201901c90506001818581611b8857611b8861218d565b048201901c90506001818581611ba057611ba061218d565b048201901c90506001818581611bb857611bb861218d565b048201901c90506001818581611bd057611bd061218d565b048201901c9050611bef818581611be957611be961218d565b04821190565b90039392505050565b604080516001600160a01b038416602482015260448082018490528251808303909101815260649091019091526020810180516001600160e01b031663095ea7b360e01b179052611c498482611d3b565b611638576040516001600160a01b03848116602483015260006044830152611c7e91869182169063095ea7b390606401611422565b6116388482611a33565b7f9016d09d72d40fdae2fd8ceac6b6234c7706214fd39c1cd1e609a0528c19930080546001600160a01b031981166001600160a01b03848116918217845560405192169182907f8be0079c531659141344cd1fd0a4f28419497f9722a3daafe3b4186f6b6457e090600090a3505050565b805115611d0857805160208201fd5b60405163d6bda27560e01b815260040160405180910390fd5b6000611d2b611340565b54600160401b900460ff16919050565b6000806000806020600086516020880160008a5af192503d915060005190508280156113eb57508115611d7157806001146113eb565b50505050506001600160a01b03163b151590565b6001600160a01b0381168114610aab57600080fd5b6000806000808486036101a0811215611db257600080fd5b8535611dbd81611d85565b94506020860135611dcd81611d85565b93506040860135611ddd81611d85565b9250610140605f1982011215611df257600080fd5b509295919450926060019150565b634e487b7160e01b600052602160045260246000fd5b6020810160048310611e3857634e487b7160e01b600052602160045260246000fd5b91905290565b600060208284031215611e5057600080fd5b8135611e5b81611d85565b9392505050565b600080600080600060808688031215611e7a57600080fd5b8535611e8581611d85565b94506020860135611e9581611d85565b935060408601359250606086013567ffffffffffffffff80821115611eb957600080fd5b818801915088601f830112611ecd57600080fd5b813581811115611edc57600080fd5b896020828501011115611eee57600080fd5b9699959850939650602001949392505050565b600060208284031215611f1357600080fd5b5035919050565b600061014082019050825182526020830151602083015260408301516040830152606083015160608301526080830151611f5b608084018262ffffff169052565b5060a0830151611f7260a084018262ffffff169052565b5060c0830151611f8d60c08401826001600160a01b03169052565b5060e0830151611fa860e08401826001600160a01b03169052565b50610100838101516001600160a01b03908116918401919091526101209384015116929091019190915290565b60008060408385031215611fe857600080fd5b50508035926020909101359150565b6000813562ffffff8116811461136557600080fd5b6000813561136581611d85565b80546001600160a01b0319166001600160a01b0392909216919091179055565b813581556020820135600182015560408201356002820155606082013560038201556004810161208361206e60808501611ff7565b825462ffffff191662ffffff91909116178255565b6120b061209260a08501611ff7565b825465ffffff000000191660189190911b65ffffff00000016178255565b6120ef6120bf60c0850161200c565b8280546601000000000000600160d01b03191660309290921b6601000000000000600160d01b0316919091179055565b506121086120ff60e0840161200c565b60058301612019565b612121612118610100840161200c565b60068301612019565b6118a6612131610120840161200c565b60078301612019565b634e487b7160e01b600052601160045260246000fd5b808201808211156113655761136561213a565b818103818111156113655761136561213a565b80820281158282048414176113655761136561213a565b634e487b7160e01b600052601260045260246000fd5b6000826121b2576121b261218d565b500490565b6000602082840312156121c957600080fd5b5051919050565b6000602082840312156121e257600080fd5b8151611e5b81611d85565b60008160020b8360020b806122045761220461218d565b627fffff1982146000198214161561221e5761221e61213a565b90059392505050565b60008260020b8260020b028060020b91508082146122475761224761213a565b5092915050565b81516001600160a01b031681526101608101602083015161227a60208401826001600160a01b03169052565b506040830151612291604084018262ffffff169052565b5060608301516122a6606084018260020b9052565b5060808301516122bb608084018260020b9052565b5060a083015160a083015260c083015160c083015260e083015160e083015261010080840151818401525061012080840151612301828501826001600160a01b03169052565b505061014092830151919092015290565b6000806000806080858703121561232857600080fd5b8451935060208501516fffffffffffffffffffffffffffffffff8116811461234f57600080fd5b604086015160609096015194979096509250505056fe9b779b17422d0df92223018b32b4d1fa46e071723d6817e2486d003becc55f00a2646970667358221220d0a1f15f59838a84e81d9393efaf711498d34b0627e90678d8c900cd4d0dafe864736f6c63430008140033",
  "devdoc": {
    "errors": {
      "FailedCall()": [
        {
          "details": "A call to an address target failed. The target may have reverted."
        }
      ],
      "InsufficientBalance(uint256,uint256)": [
        {
          "details": "The ETH balance of the account is not enough to perform the operation."
        }
      ],
      "InvalidInitialization()": [
        {
          "details": "The contract is already initialized."
        }
      ],
      "NotInitializing()": [
        {
          "details": "The contract is not initializing."
        }
      ],
      "OwnableInvalidOwner(address)": [
        {
          "details": "The owner is not a valid owner account. (eg. `address(0)`)"
        }
      ],
      "OwnableUnauthorizedAccount(address)": [
        {
          "details": "The caller account is not authorized to perform an operation."
        }
      ],
      "ReentrancyGuardReentrantCall()": [
        {
          "details": "Unauthorized reentrant call."
        }
      ],
      "SafeERC20FailedOperation(address)": [
        {
          "details": "An operation with an ERC-20 token failed."
        }
      ]
    },
    "events": {
      "Initialized(uint64)": {
        "details": "Triggered when the contract has been initialized or reinitialized."
      }
    },
    "kind": "dev",
    "methods": {
      "acceptOwnership()": {
        "details": "The new owner accepts the ownership transfer."
      },
      "buyTokens(uint256)": {
        "params": {
          "minTokens": "Minimum tokens to receive (slippage protection)"
        }
      },
      "finalizeCurve()": {
        "details": "Only callable when bonding target is reached"
      },
      "initialize(address,address,address,(uint256,uint256,uint256,uint256,uint24,uint24,address,address,address,address))": {
        "params": {
          "lock_": "Address of the LP NFT lock contract",
          "owner_": "Address that will own the contract",
          "token_": "Address of the ERC20 token"
        }
      },
      "owner()": {
        "details": "Returns the address of the current owner."
      },
      "pendingOwner()": {
        "details": "Returns the address of the pending owner."
      },
      "renounceOwnership()": {
        "details": "Leaves the contract without owner. It will not be possible to call `onlyOwner` functions. Can only be called by the current owner. NOTE: Renouncing ownership will leave the contract without an owner, thereby disabling any functionality that is only available to the owner."
      },
      "sellTokens(uint256,uint256)": {
        "params": {
          "minETH": "Minimum ETH to receive (slippage protection)",
          "tokenAmount": "Amount of tokens to sell"
        }
      },
      "transferOwnership(address)": {
        "details": "Starts the ownership transfer of the contract to a new account. Replaces the pending transfer if there is one. Can only be called by the current owner. Setting `newOwner` to the zero address is allowed; this can be used to cancel an initiated ownership transfer."
      },
      "withdrawTokenAllocation(address)": {
        "details": "Can only be called after curve is finalized and only by addresses with allocations",
        "params": {
          "recipient": "Address to receive the tokens"
        }
      }
    },
    "version": 1
  },
  "userdoc": {
    "kind": "user",
    "methods": {
      "buyTokens(uint256)": {
        "notice": "Buy tokens during bonding phase"
      },
      "contributePreBonding()": {
        "notice": "Contribute ETH during pre-bonding phase"
      },
      "finalizeCurve()": {
        "notice": "Finalize the curve and create Uniswap pool"
      },
      "initialize(address,address,address,(uint256,uint256,uint256,uint256,uint24,uint24,address,address,address,address))": {
        "notice": "Initialize the bonding curve contract"
      },
      "onERC721Received(address,address,uint256,bytes)": {
        "notice": "Implements IERC721Receiver"
      },
      "sellTokens(uint256,uint256)": {
        "notice": "Sell tokens during bonding phase"
      },
      "withdrawTokenAllocation(address)": {
        "notice": "Withdraw allocated tokens after curve finalization"
      }
    },
    "version": 1
  },
  "storageLayout": {
    "storage": [
      {
        "astId": 5329,
        "contract": "contracts/BondingCurve.sol:BondingCurve",
        "label": "settings",
        "offset": 0,
        "slot": "0",
        "type": "t_struct(BondingCurveSettings)6256_storage"
      },
      {
        "astId": 5332,
        "contract": "contracts/BondingCurve.sol:BondingCurve",
        "label": "token",
        "offset": 0,
        "slot": "8",
        "type": "t_contract(IToken)5300"
      },
      {
        "astId": 5334,
        "contract": "contracts/BondingCurve.sol:BondingCurve",
        "label": "lockContract",
        "offset": 0,
        "slot": "9",
        "type": "t_address"
      },
      {
        "astId": 5336,
        "contract": "contracts/BondingCurve.sol:BondingCurve",
        "label": "uniswapPool",
        "offset": 0,
        "slot": "10",
        "type": "t_address"
      },
      {
        "astId": 5338,
        "contract": "contracts/BondingCurve.sol:BondingCurve",
        "label": "lpTokenId",
        "offset": 0,
        "slot": "11",
        "type": "t_uint256"
      },
      {
        "astId": 5340,
        "contract": "contracts/BondingCurve.sol:BondingCurve",
        "label": "isFinalized",
        "offset": 0,
        "slot": "12",
        "type": "t_bool"
      },
      {
        "astId": 5348,
        "contract": "contracts/BondingCurve.sol:BondingCurve",
        "label": "currentPhase",
        "offset": 1,
        "slot": "12",
        "type": "t_enum(Phase)5345"
      },
      {
        "astId": 5350,
        "contract": "contracts/BondingCurve.sol:BondingCurve",
        "label": "totalPreBondingContributions",
        "offset": 0,
        "slot": "13",
        "type": "t_uint256"
      },
      {
        "astId": 5352,
        "contract": "contracts/BondingCurve.sol:BondingCurve",
        "label": "ethReserve",
        "offset": 0,
        "slot": "14",
        "type": "t_uint256"
      },
      {
        "astId": 5354,
        "contract": "contracts/BondingCurve.sol:BondingCurve",
        "label": "tokenReserve",
        "offset": 0,
        "slot": "15",
        "type": "t_uint256"
      },
      {
        "astId": 5356,
        "contract": "contracts/BondingCurve.sol:BondingCurve",
        "label": "preBondingTokens",
        "offset": 0,
        "slot": "16",
        "type": "t_uint256"
      },
      {
        "astId": 5358,
        "contract": "contracts/BondingCurve.sol:BondingCurve",
        "label": "totalETHCollected",
        "offset": 0,
        "slot": "17",
        "type": "t_uint256"
      },
      {
        "astId": 5360,
        "contract": "contracts/BondingCurve.sol:BondingCurve",
        "label": "accumulatedFees",
        "offset": 0,
        "slot": "18",
        "type": "t_uint256"
      },
      {
        "astId": 5364,
        "contract": "contracts/BondingCurve.sol:BondingCurve",
        "label": "contributions",
        "offset": 0,
        "slot": "19",
        "type": "t_mapping(t_address,t_uint256)"
      },
      {
        "astId": 5368,
        "contract": "contracts/BondingCurve.sol:BondingCurve",
        "label": "tokenLocks",
        "offset": 0,
        "slot": "20",
        "type": "t_mapping(t_address,t_bool)"
      },
      {
        "astId": 5372,
        "contract": "contracts/BondingCurve.sol:BondingCurve",
        "label": "tokenAllocations",
        "offset": 0,
        "slot": "21",
        "type": "t_mapping(t_address,t_uint256)"
      }
    ],
    "types": {
      "t_address": {
        "encoding": "inplace",
        "label": "address",
        "numberOfBytes": "20"
      },
      "t_bool": {
        "encoding": "inplace",
        "label": "bool",
        "numberOfBytes": "1"
      },
      "t_contract(IToken)5300": {
        "encoding": "inplace",
        "label": "contract IToken",
        "numberOfBytes": "20"
      },
      "t_enum(Phase)5345": {
        "encoding": "inplace",
        "label": "enum BondingCurve.Phase",
        "numberOfBytes": "1"
      },
      "t_mapping(t_address,t_bool)": {
        "encoding": "mapping",
        "key": "t_address",
        "label": "mapping(address => bool)",
        "numberOfBytes": "32",
        "value": "t_bool"
      },
      "t_mapping(t_address,t_uint256)": {
        "encoding": "mapping",
        "key": "t_address",
        "label": "mapping(address => uint256)",
        "numberOfBytes": "32",
        "value": "t_uint256"
      },
      "t_struct(BondingCurveSettings)6256_storage": {
        "encoding": "inplace",
        "label": "struct IFactory.BondingCurveSettings",
        "members": [
          {
            "astId": 6237,
            "contract": "contracts/BondingCurve.sol:BondingCurve",
            "label": "virtualEth",
            "offset": 0,
            "slot": "0",
            "type": "t_uint256"
          },
          {
            "astId": 6239,
            "contract": "contracts/BondingCurve.sol:BondingCurve",
            "label": "preBondingTarget",
            "offset": 0,
            "slot": "1",
            "type": "t_uint256"
          },
          {
            "astId": 6241,
            "contract": "contracts/BondingCurve.sol:BondingCurve",
            "label": "bondingTarget",
            "offset": 0,
            "slot": "2",
            "type": "t_uint256"
          },
          {
            "astId": 6243,
            "contract": "contracts/BondingCurve.sol:BondingCurve",
            "label": "minContribution",
            "offset": 0,
            "slot": "3",
            "type": "t_uint256"
          },
          {
            "astId": 6245,
            "contract": "contracts/BondingCurve.sol:BondingCurve",
            "label": "poolFee",
            "offset": 0,
            "slot": "4",
            "type": "t_uint24"
          },
          {
            "astId": 6247,
            "contract": "contracts/BondingCurve.sol:BondingCurve",
            "label": "sellFee",
            "offset": 3,
            "slot": "4",
            "type": "t_uint24"
          },
          {
            "astId": 6249,
            "contract": "contracts/BondingCurve.sol:BondingCurve",
            "label": "uniswapV3Factory",
            "offset": 6,
            "slot": "4",
            "type": "t_address"
          },
          {
            "astId": 6251,
            "contract": "contracts/BondingCurve.sol:BondingCurve",
            "label": "positionManager",
            "offset": 0,
            "slot": "5",
            "type": "t_address"
          },
          {
            "astId": 6253,
            "contract": "contracts/BondingCurve.sol:BondingCurve",
            "label": "weth",
            "offset": 0,
            "slot": "6",
            "type": "t_address"
          },
          {
            "astId": 6255,
            "contract": "contracts/BondingCurve.sol:BondingCurve",
            "label": "feeTo",
            "offset": 0,
            "slot": "7",
            "type": "t_address"
          }
        ],
        "numberOfBytes": "256"
      },
      "t_uint24": {
        "encoding": "inplace",
        "label": "uint24",
        "numberOfBytes": "3"
      },
      "t_uint256": {
        "encoding": "inplace",
        "label": "uint256",
        "numberOfBytes": "32"
      }
    }
  }
}